:020000040000fa
:080000001019040000000000cb
:020000040000fa
:103220000f1321000eff27000e0188000000000090
:1032300000012000200288000c000700407f2800c9
:10324000010020000f000700000020000000e00047
:103250000200320000000200000000005a94020048
:10326000000000000040da000000fe008036200070
:103270000000e000020032000020200090018800e1
:1032800000000600a1028800800078000000eb002a
:103290001a003700e280400054a0b4009101ba0047
:1032a000e280400054a0b4009102ba00e2804000e5
:1032b00054a0b4000002eb00472bde00f507b2007b
:1032c000a6018800602ce10008003a000049eb00ec
:1032d0000201e800020039003420ec0002f0a000f6
:1032e0008301e900f9ff3e00040037006128e10096
:1032f000010032000082eb00040007001101ba0057
:103300000200e000e3ff3a000000060004d0a30042
:10331000e20f49001c003900810278003549ba00eb
:103320000201e800020039003420ec0002f0a000a5
:103330008301e9000f0032002549ba000201e800cc
:10334000020039003420ec0002f0a0008301e90003
:10335000080032000400e0000600320015c9ba007f
:103360000201e800020039003420ec0002f0a00065
:103370008301e9008180e80054a0b4000300e0006c
:10338000e2ff3a00000006009102ba0005597800f9
:103390008301e900f7ff3200c82ade0005597800f2
:1033a0008301e900f3ff32000400e000f1ff320086
:1033b00011d9ba00eeff37003600f800809fbe003a
:1033c000829fbe00849fbe00869fbe003200f80030
:1033d00000202000900188008460a9006d30070063
:1033e0003200f9004f03be004f02be004f01be0085
:1033f0004f00be003600f90000400600e403200044
:10340000140888000481a80004a1a80005e1a80010
:103410009460a800000006000040da000000fe00f2
:103420001004b100070035009001b1000400340021
:103430007000b100030035009001b10001003c00b4
:1034400010000500000005006900e10004003500df
:103450006d00e100030034000002b1000100320001
:103460000000050010000500800078001104b10084
:10347000030035009101b10001003c000050a000a4
:1034800000000600800078001106b100030035003e
:103490009101b10001003c000050a10000000600b5
:1034a0000800fa00100798002107980032079800da
:1034b0003e029000441188001e0290000411880012
:1034c0002e02900014118800020037003411800091
:1034d000044f78001411800061026200e00f520076
:1034e000faff3a008560a9000080fa00000006009b
:1034f0006022b800060220000000d0008180d200c7
:103500000482d2008582d2000000a0000202520094
:1035100083825a00030031000202420083824a0083
:103520000000a1000603e900f3ff3a0000000600d6
:10353000efff07000400be00000006000002780054
:1035400002003700015a78000201e900e00f510043
:10355000fcff3a0000000600889fbe000004be0089
:10356000050037000000fb0089007800cf08070045
:10357000e10f40000400320038407800e04f500076
:10358000f8ff3a000000eb004f04be000000060008
:10359000881f780061f12000efff07000004780029
:1035a00061f12000a0002000c0080700080078009a
:1035b0004f04780000000600b042780031c252008b
:1035c00002003a00e0cf5200fbff3a000400fb008b
:1035d0000000060000027800b1427800055a780029
:1035e000e0cf5200fcff3a0000000600ea874700e7
:1035f000889fbe008a9fbe008c9fbe008e1f7800f1
:1036000001077800820478000002eb00d45f880094
:10361000840f570001003200000f78000005780089
:103620003a4678000a0478000c00fb0086ff070089
:10363000e00f5000faff3a008c427800d4c2b30089
:1036400084cf520003003a00b84278001dc0b30096
:103650000500370080467800b4c2b30084cf520022
:1036600001003a00b842780004c3b30084cf52008e
:1036700012003a00b8427800e08f54000200320095
:10368000f08f54005c003a0084c7b30084cf52002e
:103690000300320084c5b30084cf520003003a0017
:1036a000b84278000901200053003700e08f540031
:1036b00051003a00890020004f0037000046eb001f
:1036c000e08f540002003a0009467800a90020006b
:1036d0006055b800614bb900d6b79f00e7b79f00af
:1036e0000503fb000600780085bf9f00f6b79f002a
:1036f0004bff07008fba97007fb39700e00f500091
:1037000005003200060078005eff070097ccb3008a
:1037100007424000050037000603b100e90f5300df
:1037200020003e0006cdb30006c242008402fb002a
:10373000898f52001a003d000402fb00cfa2de0078
:103740005fb19700efb197000a00be00f4b79f0089
:1037500085bf9f00330e07007fb297008fba970096
:1037600004034000858348000800e800860f5500e8
:10377000878f5d000500360024022000d45f88009a
:103780000004780010c0b3000600370098427800ab
:10379000000478000605be001cc0b300d0ff37004f
:1037a0000040eb00e04f560003003200e00f5700ee
:1037b00001003200080fe900e14f5000050032001f
:1037c000e0cf56000500320060051500e0851d00c1
:1037d000020037000085eb008085eb000a00be0088
:1037e0004f0778004f06be004f05be004f04be00d5
:1037f000af00b100000006001cc0b300b4ff3700ea
:103800000c00fa00889fbe0000047800f4ff270037
:10381000d4bf9f008004eb0099bf9f0088bf9f002a
:10382000a8bf9f00240c2000b4bf9f0070805700e9
:10383000cb0007000fba9700094a78000fba97002b
:10384000080052004f04be000080fa00000006008d
:103850000000fa0068815700cfb8970060f120009f
:10386000560807000080fa00000006000800fa0071
:10387000889fbe008a9fbe000084fb00d4c6b300b0
:10388000844f5000340036004b0620001100090020
:103890000b84d80081057800720040004300dd00f1
:1038a00009cf2000008044006022b80006002000fc
:1038b00007fe23005001be004000be00370d070088
:1038c0000002be000203be0084bf9f0095bf9f00a0
:1038d000a6bf9f00b7bf9f00aa00200011000900eb
:1038e0008a85d80080057800e9854500c35ddd0044
:1038f0008b8544003b02be002b03be000fb897002f
:103900009fb897002fb99700bfb99700230d070004
:103910000002be000203be0084bf9f0095bf9f004f
:10392000a6bf9f00b7bf9f00110009000a84d800fe
:10393000010478004344dd00888444003902be005d
:103940002903be000fb897009fb897002fb99700c2
:10395000bfb997001d003700ea4f50001300360032
:10396000aa002000110009000a84d800010578008f
:10397000690440004344dd0009cf2000088444006e
:103980006022b8000600200007fe23003800be00b9
:103990002801be00010d07004355dd008a84440064
:1039a0003902be002903be00080037004344dd0091
:1039b00004cf2000080442006022b8000600200066
:1039c00007fe23003800be002801be00f30c0700ec
:1039d0004f05be004f04be000080fa000000060044
:1039e0000800fa00889fbe008a9fbe00d4c6b300bc
:1039f000e04f500022003d000040ea000004fb00c0
:103a0000844f50000a0034004406200011000900d1
:103a10000404d800a9002000110009008900d80082
:103a2000e9004000c308dd000acf20002000370075
:103a3000ea4f50000f003400a400200011000900dc
:103a40000404d800690040004300dd0004cf2000da
:103a500000004200430cdd00080242005403be0097
:103a60004402be005001be004000be00cb0c070067
:103a7000370037004344dd0004cf20003100370019
:103a80000004fb00844f5000230034004406200053
:103a9000110009000404d800a90020001100090049
:103aa0008900d800e9004000c308dd000ac42000f6
:103ab000810045003102be002103be008b092000b9
:103ac0008a8545003b00be002b01be00b30c0700f9
:103ad0000002be000203be0084bf9f0095bf9f008e
:103ae000a6bf9f00b7bf9f00110009000904d800be
:103af000010478004344dd00080545003a02be0099
:103b00002a03be000fb897009fb897002fb99700ff
:103b1000bfb99700d5ff3700ea4f500007003400c7
:103b2000a4002000110009000404d800690040002e
:103b30004300dd0004c42000c5ff37004344dd001e
:103b400004c42000080442003800be002801be0062
:103b50004f05be004f04be000080fa0000000600c2
:103b60002f06b000889fbe008a9fbe008c9fbe00bb
:103b70008e1f7800b0af9f00d1979f00a2af9f002b
:103b80006000b8006011b800a0a79f00b1a79f0017
:103b9000c2a79f00d3a79f000006eb00370737009e
:103ba000df9097008100e800d1979f0054c2b300d6
:103bb000844f500007003a00010278000003eb0038
:103bc000d0c2b30001c3b30002c2b30033c2b3001a
:103bd000070037000000fb00bfa89700330707006d
:103be000e10f4000250732000c06e80023073700ec
:103bf00084037800b4427800b8c2b30088cf520082
:103c00000f00320005003c0082cf52000a00320053
:103c100083cf520010003a000b00370080cf5200d3
:103c20000300320081cf52000b003a000800370039
:103c30000630a000eeff37000600a000ecff3700c2
:103c40000610a000eaff370006b0a000e8ff37002a
:103c50000620a000e6ff3700620263000100320088
:103c60000600a10068026300010032000620a100e6
:103c70000502fb000403b100e90f52000d003e00f5
:103c800087027800000020006a00b9003502fb00be
:103c90000403b10000004200850378001502fb0018
:103ca0000403b100e90f5200f7ff3600c0af9f00d8
:103cb0000a0037000005eb00caaf9f00a4c2b300a2
:103cc00084cf520005003a00afad97004b0078005a
:103cd000abaf9f00c0af9f008703e800e4c2b30012
:103ce000974f120019003a00860678000de0a000f8
:103cf00064425200d74f12000300320007037800dd
:103d00000007eb000b003700afa8970041077800d1
:103d1000a1af9f008703e8000700780076c6b300d4
:103d200007c7b300c1c6b3000c0037006a70b90002
:103d300000074200860378003602fb000403b1004e
:103d4000e90f5200f9ff3600f3ff370086067800ce
:103d50000dc0a0000007eb00efff3700b042780075
:103d6000d0979f0086cf52003000320017003c00f1
:103d700034c6b30084cf5200900032000e003c00e5
:103d80007c42520084cf52003b00320006003c00cf
:103d9000e0cf5200be06320004c2e90084cf5200d8
:103da000a5003a003000370084c5b30084cf52002c
:103db000a1003a003700370054c6b30084cf520048
:103dc0001c00320025003c001c00370087cf520049
:103dd0003000320009003c0081cf5200190032004f
:103de000f4c6b30084cf520027003200664252006e
:103df00084cf520090003a001000370054c7b3003f
:103e000084cf5200930032006342420084cf5200bc
:103e1000040032006542520084cf520086003a000e
:103e200020003700a5579f001c003700a6579f00b1
:103e300013003700a5579f000d003700a5579f00be
:103e400086003700f0826600040120000100320085
:103e50000400280084867600c0ff3700a5579f0025
:103e60000da0a0007d003700a5579f000d50a000b9
:103e70000d80a00079003700a5579f000d50a000cd
:103e80000d90a00075003700a5579f000d60a000a1
:103e900072003700a5579f000d50a0000d70a000c4
:103ea0006e003700a5579f00afa997004302780026
:103eb000a3af9f00d4af9f00e00f520002003a0072
:103ec000c6be2000d6af9f005fab97008002eb001c
:103ed000010037008502e80066c27a00e04f520018
:103ee000fcff3a00e5af9f00e00f570005003200ed
:103ef000efab9700870f5700020031000e047800e7
:103f0000e8af9f006faa97000004eb00cfac9700ca
:103f1000848f54000100360004845400e886660053
:103f200014003a0007003700bfa8970000022000e5
:103f30005e060700e10f4000010032000c06e800b9
:103f40000804e900e00f5400f7ff3a000084eb009a
:103f5000080037005faa97003400fb00d4af9f0031
:103f6000bfa8970051060700e10f40000100320092
:103f70000c06e8006faa97000405e900eaaf9f006d
:103f8000e00f5200f3ff3a00e08f56003b0632008c
:103f900007003700bfa89700000220004306070073
:103fa000e10f4000010032000c06e8000804e900bf
:103fb000e00f5400f7ff3a0030063700afad97002e
:103fc0004b027800abaf9f0004047800cfc4de0042
:103fd000090578008a0578000800be000a01be00c5
:103fe0004800de00480add0000007200a0579f0074
:103ff0007082660009003200e04f50000700320076
:10400000e14f400005003200b0579f00c8579f00a5
:1040100025002000e5af9f0003003700b8579f0040
:1040200016002000e6af9f0037f92f008783470076
:10403000d7af9f00acff3700a5579f0028f92f008e
:1040400008844700d8af9f0019002000e9af9f0007
:10405000a5ff3700a5579f000d0cb300047020008a
:1040600004826600410432000400210004826600dc
:10407000010032006e0020007082660005003200f0
:104080002fa897004005be004004be00a0af9f00cf
:10409000060037002fa997004200be00a2af9f0084
:1040a000690a07000004be000205be006022b800d5
:1040b0006033b8000800be000a01be00b409070062
:1040c000e00f500002003d000bf0a2003d00b300e5
:1040d0000002eb00b48f9f006022b8006033b8008c
:1040e0000800be000a01be000d0a0700e00f5000e4
:1040f000340032000800be000a01be009e0b07001b
:1041000062f92f000f014100f20a07003f88970073
:104110000000e9006300b900a400200011000900bc
:104120000400d800b08f9f00e00f500002003d0057
:104130000000e900b08f9f00bf899700d3af9f00b8
:104140000340ea0026fe07000802be000a03be0084
:10415000120b07000002be000203be00a4a79f00ce
:10416000b5a79f00c6a79f00d7a79f006022b800f1
:104170000600200007ff230085090700e00f50001c
:1041800003003d00dfaa97000502e9000c0037009c
:104190006022b80006002000470224002fa09700ec
:1041a000bfa097004fa19700dfa197007d090700ee
:1041b000e00f5000030035005fab97000602e800f7
:1041c000b48f9f00bf8b9700d7af9f000d02780080
:1041d0000410b20008003a000d0278000420b2007a
:1041e0006202320007007800e40f40000200350050
:1041f0008e0f5000ef013500e00f57000400320031
:104200000d0278000420b200010032000e07e90020
:10421000f20f57000300360024c1b300a4579f00db
:1042200001003700ae579f006022b8006033b8002d
:104230000800be000a01be00b9090700e00f5000e7
:10424000660032002f519700c2cf9f00afd9970070
:1042500002c05100e2fd07000002be000203be00e2
:104260000800be000a01be00530907000004be009a
:104270000205be00440a0700940a07000002be00bf
:104280000203be000800be000a01be00380b070092
:104290006022b8000600200007fe23004109070045
:1042a000e00f5000080035006022b8000600200032
:1042b00007fe23000800be000a01be00b708070081
:1042c0000004be000205be000800be000a01be00d8
:1042d0002d0a0700e09f9f00f19f9f008002eb00e6
:1042e00085a79f000003eb0096a79f00cfcb970008
:1042f0008703fb00c78f9f000702e8004322dd0011
:1043000001da2000048040003002be002003be001d
:10431000e4a79f00f5a79f0086af9f0097af9f007f
:104320006f989700ff9897000fa197009fa19700a3
:104330000400e1000588e1000690e1000798e10033
:104340000c0039000400200005002a00969929007d
:1043500097fb23000800be000a01be008f0a070079
:104360000004be000205be00dfa897000102e800bd
:10437000190037004f8997004312dd0003da20004f
:10438000048241005403be004402be006f989700af
:10439000ff9897000fa197009fa197000400e100ec
:1043a0000588e1000690e1000798e1000b0031006c
:1043b0006022b80006002000470224000800be006a
:1043c0000a01be00750a07000004be000205be0017
:1043d000dfa897000102e900b48f9f0004a020002d
:1043e0008482660004202000848f520046003a0038
:1043f000f40f5700010034004e0120000800be00f9
:104400000a01be00e0090700e0979f00f1979f00b6
:104410008001eb00839f9f000002eb00949f9f00b0
:104420000800be000a01be00d0af9f00e1af9f00b0
:10443000f2af9f0083b79f006f949700ff9497009f
:104440000f9d97009f9d9700090037000e07e90018
:10445000a4002000050020006033b8000800be0062
:104460000a01be00a00b07000205be000004be004a
:10447000e00f5400e08f5c00e00f5d00e08f5d0016
:104480000b003200a4002000050020006033b800bb
:104490000800be000a01be009a0b0700e00f5000a2
:1044a000e08f5800e00f5900e08f5900e7ff32001d
:1044b000e8979f00f9979f008a9f9f009b9f9f000e
:1044c0005fac9700efac97007fad97008fb597007a
:1044d0002f5097000002fb00840f57000a003d0098
:1044e0000e4050003efd07000002be000203be0069
:1044f0000800be000a01be00af0807000004be00ad
:104500000205be00ae579f00cfab970065825300f7
:104510000e025200c4af9f00e00f570003003a00a4
:104520000480200004826600030032004fa8970038
:104530000000e900c0af9f00638266000300320004
:10454000cfa897008100e900c1af9f006482660098
:104550002c003200e282660061826600e08f520029
:1045600006003200b0022000e00f520001003200cd
:104570000080e800bfa8970004003700e00f520059
:1045800017003200bfa8970000022000c7040700f0
:10459000e10f4000120032000c06e8001000370066
:1045a000bfa897000003200094b79f00a5b79f0005
:1045b000b6b79f00c7b79f00bc0407001fb29700a3
:1045c000afb297003fb39700cfb39700e10f400021
:1045d000010032000c06e8008904e90003003700fe
:1045e0000802be000a03be00cfac9700e08f540063
:1045f000ebff3c00c9af9f000404be000605be00ef
:104600002c0037006882660018003a000802be00dd
:104610000a03be00cfac97000f003700bfa8970079
:104620000002200094b79f00a5b79f00b6b79f0077
:10463000c7b79f009d0407001fb29700afb2970055
:104640003fb39700cfb39700e10f40000100320065
:104650000c06e8008904e900e08f5400efff3c00fd
:10466000c9af9f000404be000605be00e2826600da
:1046700061826600e08f520006003200b002200026
:10468000e00f5200010032000080e800bfa8970050
:1046900004003700e00f520006003200bfa8970068
:1046a0000002200081040700e10f400001003200f9
:1046b0000c06e8000800be000a01be00320907002f
:1046c000a09f9f00b19f9f008001eb00c39f9f00b0
:1046d0000002eb00d49f9f00af5297008502fb00c1
:1046e000e5a79f0005037800c332dd0004da20004f
:1046f000050242003404be002405be000802be00cc
:104700000a03be002f989700bf9897004f99970013
:10471000df999700f40a07000003b000bfa89700d4
:1047200062040700e10f4000010032000c06e800bf
:104730000802be000a03be002f989700bf9897009a
:104740004f999700df999700ee0a0700d0af9f00be
:10475000e1af9f00f2af9f0083b79f00e00f5700cb
:1047600003003a00048020000482660054003200f6
:10477000bfa89700e00220004c040700e10f4000b2
:10478000330032000c06e800310037004f889700f4
:10479000e00f50000d003200e00f5400e08f5c008d
:1047a000e00f5d00e08f5d0008003a00d8af9f0089
:1047b000e9af9f00faaf9f008bb79f008042eb00ec
:1047c000a5579f000004eb003b0037008502fb006b
:1047d000c32add0006da2000850243003500be0052
:1047e0002501be00d0af9f00e1af9f00f2af9f0058
:1047f00083b79f000203be000002be000800be0097
:104800000a01be00b80a07000403200000024200ab
:10481000bfa897000400780024040700e10f4000bf
:10482000010032000c06e8005faa9700efaa97008b
:104830007fab97008fb397000800be000a01be004f
:10484000b00a07000205be000004be0007003700e2
:104850008d0078000120b200c18f9f005fac9700ef
:10486000efac97007fad97008fb597002f52970060
:104870008442e900a5579f00e04f5200c3ff3a0071
:10488000d8af9f00e9af9f00faaf9f008bb79f00a2
:10489000efa297000504570007003700bfa8970054
:1048a0000003200001040700e10f40000100320076
:1048b0000c06e8000804e900e00f5400f7ff3a0096
:1048c0000d0278000402b20003003200bfa8970076
:1048d0005004200002003700bfa8970050062000b7
:1048e000f2030700e10f4000010032000c06e8006f
:1048f0003f8a9700e00f520005003d000402ea00e5
:10490000b48f9f00bfa89700d0022000020037009c
:10491000bfa89700b0022000e4030700e10f4000a9
:10492000010032000c06e8003f8c9700a400200034
:10493000110009000404d8000003b000bfa89700cc
:10494000da030700e10f4000010032000c06e80026
:10495000a4002000110009000404d8000003200076
:1049600001004000bfa89700d0030700e10f4000fe
:10497000010032000c06e80068826600bf033200c6
:104980004fab9700e00f5300bc03340006047800df
:10499000bfa8970000022000c4030700e10f4000f9
:1049a000010032000c06e8000804e900f8ff3a00b4
:1049b000b2033700dfab9700e08f530002003d00e9
:1049c0000782ea00040747000800be000a01be0093
:1049d0003c080700d0af9f00e1af9f00f2af9f00ff
:1049e00083b79f0001da20000040eb000802be0000
:1049f0000a03be00e4a79f00f5a79f0086af9f00b3
:104a000097af9f000c0037003102be003103be009b
:104a10005fac9700efac97007fad97008fb5970024
:104a20000440e10005c8e10006d0e10007d8e1003c
:104a3000030039000040e800f44f5000f2ff3a0054
:104a40006fa49700ffa497000fad97009fad97004c
:104a50000002fb0004075700f80f570009003c0054
:104a60000e40780081fb07000002be000203be007a
:104a70000800be000a01be00c80607000004be0010
:104a80000205be000e407800d5fb07000002be0004
:104a90000203be00e4a79f00f5a79f0086af9f001a
:104aa00097af9f005fa89700efa897007fa9970096
:104ab0008fb197005a0807000002be000203be0033
:104ac0000800be000a01be00290907000002be005e
:104ad0000203be006fa09700ffa097000fa99700e8
:104ae0009fa99700ad080700f60707000802be005f
:104af0000a03be00d4af9f00e5af9f00f6af9f0052
:104b000087b79f000205be000004be000900370001
:104b1000a4002000050020006033b8000800be009b
:104b20000a01be00f00907000205be000004be0035
:104b30000e07e900e00f570018003200a400200023
:104b4000050020006033b8000800be000a01be0066
:104b5000ec090700e00f5000e08f5800e00f59000b
:104b6000e08f5900eaff32000c003700f80f5700c1
:104b70000e003c000e4078003cfb07000002be0027
:104b80000203be000800be000a01be008306070043
:104b90000004be000205be00040037005fac9700b1
:104ba000efac97007fad97008fb59700bf8a970055
:104bb000d5af9f00e98f520012003c006022b80080
:104bc0006033b8000800be000a01be0054070700a9
:104bd000e00f50002f0032000800be000a01be00a6
:104be000b8070700e00f5000e08f5800e00f5900b1
:104bf000e08f590027003a005fab9700e10f5300a8
:104c0000240034000400200005002e00b6e022003d
:104c1000170124002fa09700bfa097004fa1970075
:104c2000dfa19700da060700e00f500003003d0007
:104c3000dfab970073825300020037005fa8970034
:104c400072025000b48f9f006f50970064fb070002
:104c50000002be000203be00a4a79f00b5a79f00ec
:104c6000c6a79f00d7a79f000800be000a01be008c
:104c7000d106070093070700d0af9f00e1af9f0068
:104c8000f2af9f0083b79f006044b8006055b80042
:104c9000110037000800be000a01be0089070700a6
:104ca000d0af9f00e1af9f00f2af9f0083b79f009e
:104cb000db0707000002be000203be000800be00c2
:104cc0000a01be00aa0807000004be000205be00db
:104cd0000002eb00b48f9f0081da200010c0b30007
:104ce0000802be000a03be00d4b79f00e5b79f00cc
:104cf000f6b79f0087bf9f00100037003104be0049
:104d00003105be00e8a79f00f9a79f008aaf9f006a
:104d10009baf9f005faa9700efaa97007fab970019
:104d20008fb397000820e10009a8e1000ab0e10074
:104d30000bb8e100030039000040e800f44f5000d8
:104d4000eeff3a005fb49700efb497007fb597008d
:104d50008fbd9700a0579f003f8a9700cfaa97006a
:104d6000048252008e0252000002fb0004825200b4
:104d7000c4af9f000480200004826600e4a79f0067
:104d800002003a00e00f5700030032004fab9700db
:104d90000603e900c6af9f0063826600030032008d
:104da000cfab97008703e900c7af9f00648266001e
:104db0002c003200e282660061826600e08f5200c1
:104dc00006003200b0022000e00f52000100320065
:104dd0000080e800bfa8970004003700e00f5200f1
:104de00017003200bfa8970000022000af020700a2
:104df000e10f4000120032000c06e80010003700fe
:104e0000bfa897000003200094b79f00a5b79f009c
:104e1000b6b79f00c7b79f00a40207001fb2970054
:104e2000afb297003fb39700cfb39700e10f4000b8
:104e3000010032000c06e8008904e9000300370095
:104e40000802be000a03be00cfac9700e08f5400fa
:104e5000ebff3c00c9af9f000404be000605be0086
:104e6000400037006882660018003a000802be0061
:104e70000a03be00cfac97000f003700bfa8970011
:104e80000002200094b79f00a5b79f00b6b79f000f
:104e9000c7b79f00850207001fb29700afb2970007
:104ea0003fb39700cfb39700e10f400001003200fd
:104eb0000c06e8008904e900e08f5400efff3c0095
:104ec000c9af9f000404be000605be00e282660072
:104ed00061826600e08f520006003200b0022000be
:104ee000e00f5200010032000080e800bfa89700e8
:104ef00018003700e00f52001a003200bfa89700d8
:104f000000022000130037008502fb00c32add00e9
:104f100000da2000850240005503be004502be00b5
:104f20005fa89700efa897007fa997008fb197001f
:104f3000ed080700a4002000050020006033b80041
:104f4000f00807000403200000024200bfa89700f9
:104f50000400780055020700e10f40000100320014
:104f60000c06e8002f5297008442e900a5579f00e5
:104f7000e04f5200e4ff3a000802be000a03be0000
:104f800010003700bfa897000003200094b79f00cf
:104f9000a5b79f00b6b79f00c7b79f0043020700a1
:104fa0001fb29700afb297003fb39700cfb39700ff
:104fb000e10f4000010032000c06e8008904e9001e
:104fc000b98f9f00bf8c9700e08f5400edff3c002d
:104fd0000404be000605be00f20f570003003400b3
:104fe00024c1b300a4579f0001003700ae579f00b3
:104ff000af5297000502fb0004075700e0cf5200b4
:1050000003003a006fa19700e00f51000600320044
:10501000bfa89700e002200024020700e10f400033
:10502000010032000c06e8002f5097006cfa0700d0
:105030000002be000203be000800be000a01be005e
:10504000560707009f0607000205be000004be00c9
:10505000240037008502fb00c32add0006da2000a9
:10506000850243003500be002501be00d0af9f0081
:10507000e1af9f00f2af9f0083b79f000203be0025
:105080000002be000800be000a01be00960807002c
:10509000a4002000050020006033b8009908070034
:1050a0000403200000024200bfa89700040078001b
:1050b000fe010700e10f4000010032000c06e8008d
:1050c0005faa9700efaa97007fab97008fb3970076
:1050d0000800be000a01be008a0807000205be00e3
:1050e0000004be002f5297008442e900a5579f009c
:1050f000e04f5200d7ff3a00d8af9f00e9af9f00c2
:10510000faaf9f008bb79f0007003700bfa897003a
:1051100000032000e5010700e10f4000010032001c
:105120000c06e8000e07e900e00f5700f7ff3a0011
:1051300068826600d1013200cfaa9700e08f52004a
:10514000ce01340005047800bfa8970000022000bb
:10515000d6010700e10f4000010032000c06e80014
:105160000804e900f8ff3a00c40137008d02780016
:10517000050cb2003c003a00e08f560005003d00ef
:105180002fa897004005be004004be00a0af9f00be
:105190001000370070826600130032002faa9700bb
:1051a0004401be00a4af9f0092979f00a3979f0069
:1051b00084027800150290004fa2de00b4979f0091
:1051c000c4979f001f949700af9497003f95970056
:1051d000cf959700d8af9f00e9af9f00faaf9f002f
:1051e0008bb79f000b003700afac970049027800e7
:1051f000a9af9f0004007800cf80de000101780095
:1052000082017800d0af9f00e1af9f00f2af9f0016
:1052100083b79f005faa9700efaa97007fab970024
:105220008fb39700e00f5200e08f5a00e00f5b0051
:10523000e08f5b0030003d003d00b3006022b8000d
:105240006033b8005fac9700efac97007fad97007c
:105250008fb597000804520089845a000a055b0044
:105260008b855b0020003700e08f560005003d0075
:105270002faa97004401be004400be00a4af9f00c7
:105280000d003700f0826600100032002fac97004e
:105290004803be00a8af9f00d68f9f00e78f9f00f6
:1052a000f48f9f0084979f005f889700ef88970096
:1052b0007f8997008f919700d0af9f00e1af9f004b
:1052c000f2af9f0083b79f000b003700afa8970095
:1052d00041027800a1af9f0004047800090020007b
:1052e0000a0020000b002000d8af9f00e9af9f000c
:1052f000faaf9f008bb79f00e00f57000b003a00fa
:105300001e0020005fa89700efa897007fa99700d4
:105310008fb19700e00f5000e08f5800e00f590068
:10532000e08f5900010032000007eb008d04780087
:10533000090cb20004042000848f540035003200b0
:1053400003003c00e08f5400070032004b003700a0
:1053500004082000848f540015003200040c200043
:10536000848f540045003a0081da200010c0b30059
:10537000090178003102be003103be005fac970026
:10538000efac97007fad97008fb597000440e10028
:1053900005c8e10006d0e10007d8e100350039007a
:1053a0000040e800f44f5000f2ff3a0031003700af
:1053b00010c0b30004012000050020006033b800d5
:1053c000090178005fac9700efac97007fad9700c4
:1053d0008fb597000440e10005c8e10006d0e10068
:1053e00007d8e10023003900490020000402d00062
:1053f0008582d2000683d2008783d2008904e90027
:10540000faff3a000040e800f04f5000edff3a008c
:105410001800370010c0b3008400200005002000f1
:105420006033b800090178005fac9700efac9700db
:105430007fad97008fb597000440e10005c8e100fb
:1054400006d0e10007d8e1000a0039003900200049
:105450000402d0008582d2000683d2008783d20066
:105460008904e900faff3a000040e800f54f5000d7
:10547000edff3a0082047800a0579f002f55970057
:105480000a02fb008e0f520002003d00ae579f0043
:1054900003003700840f570001003d000407780027
:1054a0004fa89700e00f50000400320063826600ae
:1054b000020032000000e900c0af9f000400240099
:1054c0000482660008003200cfa897008e8f50003b
:1054d000030034008e805000c1af9f0002003700ef
:1054e0000001eb00c2af9f00448c20008482660064
:1054f0004408b100848f520006003a00cfa99700fb
:10550000e08f5100100032008301e900c3af9f001b
:105510000d003700048c2000848266000404b10072
:10552000848f520008003a004faa9700e20f520001
:10553000030034000482e900c4af9f00020037007a
:105540008002eb00c5af9f002f5397000602fb00bf
:105550000004eb00cfab9700848f530001003400b0
:1055600004845300648266002d003200e2826600eb
:1055700061826600e08f520005003200b002200018
:10558000e00f5200170032000080e80015003700dd
:10559000e00f520003003200bfa897000002200075
:1055a00011003700048c2000848266000404b100de
:1055b000848f520010003a00bfa89700000320001b
:1055c000ba000700e10f4000010032000c06e800bd
:1055d0000d0278000402b2008007200001003200b2
:1055e00080052000bfa89700b0000700e10f400031
:1055f000010032000c06e800e00f54008d0032007c
:10560000bfa8970000032000a8000700e10f40009a
:10561000010032000c06e8000804e900f6ff37003c
:10562000e00f54000a0032006882660008003a0069
:10563000bfa89700000220009c000700e10f400077
:10564000010032000c06e8000804e900f8ff3a0007
:10565000e282660061826600e08f5200060032003e
:10566000b0022000e00f5200010032000080e8008c
:10567000bfa8970004003700e00f52000600320078
:10568000bfa897000002200088000700e10f40003b
:10569000010032000c06e800048c200084826600c1
:1056a0000408b100848f520003003a00bfa897009d
:1056b000000320000f00370004882000848f520070
:1056c0005c003a00bfa897000003200077000700a5
:1056d000e10f4000010032000c06e8000d027800e6
:1056e0000402b20080072000010032008005200083
:1056f000bfa897006d000700e10f40004d00320089
:105700000c06e8004b0037000e07e9008a8f5400b2
:105710003000320003003c00e08f540007003200ec
:105720003c00370004082000848f5400140032002d
:10573000040c2000848f540036003a004372dd00d0
:105740000bda20000b0242005403be004402be00ec
:105750005fa89700efa897007fa997008fb19700e7
:10576000e1060700a4002000050020006033b80017
:10577000e406070004c3b3000442400024003700dd
:10578000b4bd2000cfaa9700e08f52000100320084
:10579000a4bc2000c272dd005fa89700efa89700ac
:1057a0007fa997008fb197008502e90005003300bb
:1057b0008301d1000281d3008180d3000080d30017
:1057c000f9ff37006f00600064407800a0579f0029
:1057d000100037006372b9005fa89700efa8970028
:1057e0007fa997008fb19700840578008b05e900a9
:1057f000050033008301d1000281d3008180d300f2
:105800000080d300f9ff3700674260000443b00016
:10581000a4579f00af5097000100fb00bfa897005e
:1058200022000700e10f4000060032000c06e800ed
:10583000040037000a0420000d0178000202b200c3
:10584000c2af9f00e00f5700afff3a0068826600ca
:105850000a003200e00f540008003400bfa897008f
:105860000002200011000700e10f4000010032009b
:105870000c06e8000804e900f8ff3a00df91970001
:1058800013407800a0579f00e04f5000c4f83a0042
:105890000c0078004f0778004f06be004f05be0091
:1058a0004f04be002f06b10000000600889fbe0016
:1058b0000104780038029000e20262008084eb006c
:1058c0003b003200040378000620b20098029000ea
:1058d00002003a00e08f520035003a000490a00028
:1058e0003404980080047800f90fb200e08f520071
:1058f00002003a00a8029000050c7800ea8f5400dc
:1059000005003a000408b20003003a00880078005d
:10591000d0002000e5ff070018029000d802900098
:10592000850f52000b0032000402e80014049800b6
:1059300018027800094a7800040ce80015c0b3008a
:1059400044bf2000054a7800ea8f540018003a004e
:105950000500370088007800094078009b020700a6
:105960008004780012003700380290000410b20062
:105970000f00320018019000a8009000480090002d
:10598000d602070018029000840f50000400320075
:10599000380290000403b300340498008084eb00c4
:1059a0000002eb001404980028029000040c780018
:1059b000090078004f04be00000006002f03b0006d
:1059c000889fbe008a9fbe008c9fbe008e1f7800fd
:1059d000e0af9f00c1af9f00b2b79f008006eb0011
:1059e0006e023700cfa897008100e800c1af9f008a
:1059f00054c2b300844f500006003a000102780000
:105a00000006eb0001c3b30000c2b300b7c2b3008d
:105a1000070037000000fb00efa89700a3ff070076
:105a2000e10f40005d0232008d06e8005b023700a6
:105a30008402780034437800d2c2b300824f53000e
:105a40000900320005003c00804f5300080032007e
:105a5000874f53000c003a0007003700814f530076
:105a600009003a00060037000c30a000f0ff3700b4
:105a70000c00a000eeff37000c10a000ecff370078
:105a80000c20a000eaff370062026600010032002d
:105a90000c00a10068026600010032000c20a10089
:105aa0000602fb000403b100e90f52000c003e00a7
:105ab000050378000002eb006a22b900b603fb0080
:105ac0000703b10004824300860278009603fb00be
:105ad0000703b100e98f5300f7ff360008003700d5
:105ae0000002eb00a7c2b300874f530004003a0046
:105af000bfb1970043027800b3b79f008502e8006a
:105b00000007eb00e6c2b300954f13000a003a000d
:105b10000ce0a00064435300d54f13000200320094
:105b200005037800080037003fb397004607780068
:105b3000b6b79f008502e80005037800080037002b
:105b40006a70b9000087430086027800b603fb0044
:105b50000703b100e98f5300f9ff3600f6ff370065
:105b6000b6427800c6af9f00c0c6b30080cf5200d7
:105b7000250032000f003c0036c6b30086cf52002d
:105b80006e00320004003c00e0cf520008023200f8
:105b90006b4353000f00370046c6b30086cf520058
:105ba000170032006543430086cf520083003a005d
:105bb0001300370036c7b30086cf52001f003200f3
:105bc00007003c006443530086cf520014003200ab
:105bd0000643e80086cf520078003a0013003700f1
:105be00056c7b30086cf52007900320063434300aa
:105bf00086cf520071003a00a5c79f000d00370004
:105c0000a5c79f0074003700f0036600050120005f
:105c1000010032000500280005067600d0ff37009d
:105c2000a5c79f000c60a0006b003700a5c79f00b0
:105c30000c50a0000c70a00067003700a5c79f00a3
:105c4000bfb09700c1027800b1b79f00050478008b
:105c5000e08f520001003a0028f02000080378008d
:105c60008002eb00010037008502e800e6c37a00fd
:105c7000e0cf5300fcff3a0085047800e00f5700a6
:105c800003003200890f5700010031008e047800b4
:105c90000007eb00890f520001003600090752008f
:105ca0006806660014003a0007003700efa8970066
:105cb00000022000fdfe0700e10f4000010032005d
:105cc0008d06e8000e07e900e00f5700f7ff3a00e5
:105cd0000087eb0008003700080278003400fb0062
:105ce00004047800efa89700f0fe0700e10f4000e1
:105cf000010032008d06e800090278008404e90002
:105d0000e00f5200f4ff3a00e00f5600a30132000a
:105d100007003700efa8970000022000e3fe07000d
:105d2000e10f4000010032008d06e8000e07e90097
:105d3000e00f5700f7ff3a00980137003fb1970096
:105d4000c2027800b2b79f0005007800cf80de0065
:105d50000101780082017800f0af9f0081b79f00b9
:105d600092b79f00a3b79f004800de00c80add007d
:105d700000807200a0c79f00700366000900320017
:105d8000e04f500007003200e14f400005003200b4
:105d9000b0c79f006fdb9700c6c79f002900200097
:105da00003003700efdb9700b7c79f001900200002
:105db00038fc2f000f044400b0ff3700a5c79f0038
:105dc00028fc2f000f04440019002000abff37000f
:105dd000a5c79f000c0cb3008c027800050cb20024
:105de0002b003a00e00f560005003d003fb0970041
:105df0004005be004004be00b0b79f00170037004a
:105e0000f00266000f003200bfb297004501be00ed
:105e1000b5b79f00c2a79f00d3a79f0005037800d6
:105e200096029000cfaade00e5a79f00f5a79f008d
:105e30004fa49700dfa497006fa59700ffa59700d8
:105e4000060037003fb0970040047800b0b79f00cd
:105e5000cfc4de00090578008a057800e00f540001
:105e6000e08f5c00e00f5d00e08f5d0025003d00ed
:105e70003c00b3006000b8006011b8000804500096
:105e8000898458000a0559008b8559001d00370088
:105e9000e00f560005003d00bfb097004105be0071
:105ea0004104be00b1b79f0016003700f002660043
:105eb0000e003200bfb297004501be00b5b79f008b
:105ec00082af9f0093af9f000003eb00a6af9f003f
:105ed0008003eb00b7af9f000fac97009fac97001b
:105ee0002fad9700bfad9700060037003fb0970079
:105ef00040047800b0b79f00090020000a0020008d
:105f00000b002000e00f570007003a001e002000a1
:105f1000e00f5400e08f5c00e00f5d00e08f5d005b
:105f2000010032000007eb008c007800010cb20089
:105f3000f1af9f0005042000858f50002c00320037
:105f400003003c00e08f5000080032003c003700a6
:105f5000050820007fa99700850f5100100032002e
:105f6000050c2000850f510035003a0086e4200022
:105f700015c0b3003600be003601be000040e1008f
:105f800001c8e10002d0e10003d8e1002b00390094
:105f90008542e800f4cf5200f6ff3a0027003700b0
:105fa00015c0b30000012000010020006011b800fe
:105fb0000040e10001c8e10002d0e10003d8e100a7
:105fc0001e003900460020000000d0008180d20071
:105fd0000281d2008381d2000603e900faff3a0071
:105fe0008542e800f0cf5200f1ff3a00130037007d
:105ff00015c0b30080002000010020006011b8002f
:106000000040e10001c8e10002d0e10003d8e10056
:106010000a003900370020000000d0008180d20043
:106020000281d2008381d2008703e900faff3a009f
:106030008542e800f5cf5200f1ff3a00a5c79f0066
:106040002fc097008002fb008e8f520002003d009f
:10605000aec79f0003003700850f570001003d00c9
:1060600005077800e00f520003003200e3026600eb
:10607000010032000402e9000500240085026600e8
:10608000050032008e0f5200020034000e02520052
:10609000010037000002eb002fc197008202fb00d5
:1060a0008001eb00d3af9f00850f52000200340047
:1060b00085025200d5af9f00640266002c003200ba
:1060c000e202660061026600e08f520006003200c4
:1060d000b0022000e00f5200010032000080e80012
:1060e000efa8970004003700e00f520006003200ce
:1060f000efa8970000022000ecfd0700e10f400030
:10610000010032008d06e8005faa9700e00f520000
:106110008d0032000802be000a03be00dfac97000b
:10612000efa8970000032000c4b79f00d5b79f00d9
:10613000e6b79f00f7b79f00dcfd07004fb297005e
:10614000dfb297006fb39700ffb39700e10f4000f5
:10615000010032008d06e8008904e900f0ff3a00f2
:10616000d9af9f000605be000404be0076003700cc
:10617000dfaa9700e08f5200180032006802660024
:1061800016003a000802be000a03be00dfac97000a
:10619000efa8970000022000c4b79f00d5b79f006a
:1061a000e6b79f00f7b79f00c0fd07004fb297000a
:1061b000dfb297006fb39700ffb39700e10f400085
:1061c000010032008d06e8008904e900f0ff3a0082
:1061d000d9af9f000605be000404be00e2026600bf
:1061e00061026600e08f520006003200b00220001b
:1061f000e00f5200010032000080e800efa8970095
:1062000004003700e00f52004f003200efa8970063
:1062100000022000a5fd0700e10f40004a00320007
:106220008d06e800480037000e07e9007fab9700b5
:1062300007042000870f53002d00320003003c00ac
:10624000e00f530008003200370037000408200038
:106250007fae9700840f560012003200040c20001d
:10626000840f560030003a004372dd0000e4200045
:10627000000242005403be004402be000800be00fb
:106280000a01be0018040700a40020000500200039
:106290006033b8001b04070004c3b300044240008d
:1062a0002000370014ef2000bfa29700e08f5200bb
:1062b0000100320004ee2000c272dd000800be00c2
:1062c0000a01be008502e900050033008301d10008
:1062d0000281d3008180d3000080d300f9ff370012
:1062e0006f00600064407800a0c79f000e00370078
:1062f0006372b9000800be000a01be0004067800ff
:106300000c06e900050033008301d1000281d300af
:106310008180d3000080d300f9ff3700674260001e
:106320000443b000a4c79f00afc097000100fb006a
:10633000efa897005dfd0700e10f40000600320066
:106340008d06e800040037000c0178000202b2005c
:10635000b2a79f008cbf9f00e00f5700b2ff3a002a
:106360000fbe9700680666000c003200dfa9970098
:10637000e08f51000900340003067800efa8970071
:106380000002200049fd0700e10f4000010032003b
:106390008d06e8000c06e900f8ff3a004faa9700c6
:1063a00014407800a0c79f00e04f50008dfd3a00d8
:1063b0000d0078004f0778004f06be004f05be0065
:1063c0004f04be002f03b100000006000200fa00d7
:1063d000889fbe00a0ff9f00010478003802900053
:1063e000840278000504b200020032000000fb00c5
:1063f00035003700e202620005003a000403b300f2
:1064000034049800150498000080eb002e0037003b
:10641000d8049000e08f540006003a0012002000db
:10642000e6805700480090002c00070019049800ef
:1064300023003700a8029000e08f520008003a00c5
:1064400075bf200025049800050c78002500200069
:1064500055049800150498000430a00034049800f6
:1064600018019000a8009000480090001b00070051
:10647000280290008082eb0015049800affa970084
:10648000054a7800040ce8002ffa9700ea4f520002
:106490000b003a00380290000410b20008003200ed
:1064a00018019000a8009000480090000b00070021
:1064b0000002eb0014049800a8029000050c78007c
:1064c0002ffa97000400fb004f04be000080fa0082
:1064d0000000060000c0da00000006000a00fa0012
:1064e000e20f500022003e00e45f8000e10f520006
:1064f00006003200872320004623200024232000aa
:1065000005232000e08f530004003a00872220007a
:10651000462220002422200005222000000028001e
:106520001500600003003a00800b78000700280087
:10653000958a7300054020009482620001003a00b1
:1065400014a0a000820278000600370094037800af
:106550000710b200fdff3200b103fb00070b78000b
:106560008502e900e08f5200f8ff3a00080037008a
:1065700034002000b4bf9f00c0bf9f00d1bf9f0068
:10658000e2bf9f006a805700d2ff07006fb99700f3
:10659000020078000080fa00000006002800fa00df
:1065a000889fbe008a9fbe008c9fbe0007067800b1
:1065b000878669000c003b0003047800870478009c
:1065c00008f0a10009f0a100840f5000858f580049
:1065d000860f5900890f5c00030033000cf0a20005
:1065e00001003a000cf0a100fe0007006400e10089
:1065f0005f003200780147006408e100610032006a
:106600006c014700748557003200be001201be00c5
:106610003a04be001a05be001e039000be0a900098
:106620008503530006003d000004fd008104fd00c9
:106630000205fd008305fd008703ea0005037800dd
:106640000df8a3000400320060041400e0841c0074
:1066500060051d00e0851d006022b8007d0320005c
:106660000d38e1008006eb000b0039004433dd00fb
:10667000f300b20083017300390037008482720096
:106680000d027800e10664008b85d1000a85d300f5
:106690008984d3000884d3008703e900f7ff3b0017
:1066a00008004000898048000a0149008b814900a8
:1066b00004003b0060001000e08018006001190039
:1066c000e08119000358a300090032008d82720096
:1066d00084827200610260008301d1000281d300d4
:1066e0008180d3000080d3000603e8001b00370040
:1066f0000348a30017003a000600e000170034002a
:106700000603e9000d00a300000048008180480056
:1067100002014900838149000348a3000f003a00a9
:106720000600e000090034000603e9000000400014
:1067300081804800020149008381490001003a003c
:106740000003eb000348a300f5ff32006022b8000d
:1067500002003700848272006182660075000700c3
:1067600003f0a1000cf0a70003f0a000b100370077
:10677000640147006408e10002003a000df8a3003c
:10678000a9003a003200be001201be00a900370085
:106790008f1fd100df0207008f87e9000000e000b3
:1067a00000000600809feb00da0207008f87e900f7
:1067b0000000e000000006002800fa00889fbe00ec
:1067c0008a9fbe008c9fbe0003866b008500070079
:1067d0006400e100440032006408e1004a00320035
:1067e0006100e100460032006108e100490032002a
:1067f000ec0647006000b8003d02be003d03be004d
:10680000f48657006011b8003d04be003d05be008f
:106810007d0320000b0037000000a0008d06e9007a
:10682000130032000402420085824a0006034b0036
:1068300087834b000000400081804800020149002e
:10684000838149000802520089825a000a035b00d2
:106850008b835b00f0ff3b000802420089824a0004
:106860000a034b008b834b008d06e900edff3a00d5
:106870008482720086827200f707b20087827200fb
:1068800001003200150020001e0490003e0b900015
:1068900006035400e63fb0000368a300070032007f
:1068a0000000a7000500a0008301d1000281d300f1
:1068b0008180d3000080d3000603e8008301d1006b
:1068c0000281d3008180d3000080d3000002eb005e
:1068d0000482d2001700070003f0a1000cf0a7000b
:1068e00003f0a00053003700640247006408e10091
:1068f0004d0032003400be003401be00f6ff370008
:106900006108e100480032006011b8006000b80082
:10691000f1ff370003ff270002002000fbff3700d4
:10692000801feb007b0207008f87e9000000e0007a
:106930000000060018002000570020000804530043
:106940000d003d000600200097fc2f000740e100ed
:106950001e00340084827200610260008301d10055
:106960000281d3008180d3000080d3000804e800b6
:10697000f8ff3a004700200061046000050474003d
:10698000040464000d00320061004000e080480013
:1069900060014900e081490003b8a500070032000a
:1069a0000603e8006538e10004003a008301d100e5
:1069b0000281d3008180d3000080d300f87f2000c3
:1069c0000830e10003003500080378006000b800db
:1069d0006011b8004433dd00f300b200830173009e
:1069e00000000600680447000294be000094be0048
:1069f000fc0447008694be008494be000900780021
:106a00008d020700080078008b02070099007800cb
:106a1000814f70000b003b000800be0066020700bb
:106a20004f00b10003003700f3ff2700f2ff2f00f3
:106a30006110b9004f06be004f05be004f04be00f6
:106a40000080fa000000060081037800be00070005
:106a50000001be006000b8000478a30013003a00f3
:106a60006220e10015003e000d0039008301d100d5
:106a70000281d3008180d3008301d1000281d30041
:106a80008180d3008301d1000281d3008180d300b3
:106a90000538b000c42add00f300b2008381720023
:106aa00007f0a70003f0a00000000600f3ff270096
:106ab000f2ff2f006110b900fbff370003ff270032
:106ac000f7ff37001400fa00889fbe008a9fbe00bf
:106ad0008c9fbe000004be000205be006800470097
:106ae0000a90be000890be00530207000070a70085
:106af0000bf0a1000bf8a30020003a009e099000c3
:106b00000e099000fe0090006e0090009e02900022
:106b10003443200084825200c6ff32000a003c0049
:106b2000b4fc2f000428e100140034008301d100dc
:106b30000281d3008180d3000080d3008502e80069
:106b4000faff3a00bbff3700b40020000428e10040
:106b500007003c000000400081804800020149001d
:106b6000838149008502e900faff3a00b1ff37004e
:106b70000300280002002000010037006011b80067
:106b80006000b800abff37001400fa00889fbe0019
:106b90008a9fbe008c9fbe000004be000205be009e
:106ba000680047000a90be000890be00220207005d
:106bb0000070a7000bf0a1000bf8a30016003a002c
:106bc0009e0290003043200080825200b0fe2f00d1
:106bd0000028e1000d003c00b0fc2f000028e1007f
:106be0000d0034001e0990008e0890007e00900079
:106bf0000501b0000201d1008180d3000080d300e4
:106c00008502e800fbff3a008aff370001002800f8
:106c10000000200087ff37006000b80085ff3700c4
:106c2000889fbe000082700004027100048271001f
:106c30002400320036432000c50020008383cf00ab
:106c40000a0039000541b1008283cf0007003900f6
:106c50000541b1008183cf00040039000541b10036
:106c60008083cf00010039000541b10085c3530086
:106c70006022b800120032000a003b0084827200d9
:106c8000610260008301d1000281d3008180d300c2
:106c90000080d3000603e8008743e800f7ff3a00ce
:106ca00007003700000040008180480002014900d1
:106cb000838149000603e9008743e900f9ff3a00b0
:106cc0001cff07004f04be00000006006011b80062
:106cd000d3ff37001400fa00889fbe008a9fbe00d1
:106ce0008c9fbe00040678000004be000205be00b2
:106cf000680047000a90be000890be00ce01070061
:106d00006200e1000800be000a01be00040020008d
:106d10000b003a001e029000e43fb1006e009000ac
:106d2000fe0090000e0990009e099000f300b20052
:106d300005fe2300858171000bf0a70003f0a00081
:106d4000040e78003bff3700c70ade00f107b200ef
:106d5000f50fb20008003200e1cf4200020032001d
:106d60000170a00024000500810f700001003200b6
:106d70000408050044000500810f700002003a007d
:106d8000140005008502e9000000400081c04800b1
:106d9000fcff3b000170a000240005002800fa0061
:106da000889fbe008a9fbe008c9fbe0003866b003a
:106db0000cff07000028a30064003a000128a3008c
:106dc00067003a000008a30062003a000108a3002f
:106dd00065003a001e009000be0890008106400049
:106de000ed3fb100f4805700ee019000111ab80099
:106df0008e099000311bb8009e099000311cb8002c
:106e0000511db800f485570046000700fe019000b0
:106e10003a0007008b85e8003e0007008e099000cd
:106e200040000700ee019000340007008b85e80069
:106e3000380007008e099000400007009e0990006e
:106e40001b18b800890440000a854800fe01900024
:106e5000340007008b85e80038000700ee01900041
:106e6000300007008e0990001b18b800890440000c
:106e70000a8548000a98a30008003a00040242006c
:106e800085824a0006034b0087834b0008044c00b0
:106e900089844c000a054d008d06e9008482720049
:106ea000850273004c3add00850272000100320059
:106eb00015002000443ade001400b2004538de0020
:106ec000cb45dd000b007000c540de00cb4ddd0082
:106ed0008b8070004549de00cb55dd000b01710051
:106ee000c551de000d03780092fe070003f0a100fb
:106ef0000cf0a70003f0a000cefe37001b18b8006e
:106f00008502400006834800e0834b0060044c008b
:106f1000070037001b18b8000603400087834800ad
:106f2000faff37001b18b8008703400008844800a8
:106f3000e0844c0060054d00000006001b18b800fe
:106f40000804400089844800faff37000108a300c4
:106f5000b5fe3a005800be005801be00e3ff3700fe
:106f60000008a300b0fe3a0009047800f9ff3700da
:106f700007f0a20089fd37001400fa00889fbe00c8
:106f80008a9fbe008c9fbe000005be000206be00a8
:106f9000680047000c90be000a90be002601070062
:106fa0006400e1001a00320016003e006100e100ba
:106fb0001a0032006e049000fe0490000e0b900048
:106fc0009e0b90006011b8009e0590000b38b10038
:106fd000d501200082817100610164008703d10026
:106fe0000683d3008984d3000884d3008502e90096
:106ff000f8ff3a00370107000df0a70001f0a000ec
:107000008cfe3700f1ff2700f0ff2f0089fe3700cc
:1070100001f8270000002000f7ff37006000b800eb
:10702000f5ff3700020ab900001bb9000200b800e2
:10703000810042008100430000000600889fbe00de
:107040008a9fbe003004be002005be000404440038
:1070500085844c0006054d0087854d000898be00cc
:107060000a90be000440e10005c8e10006d0e1003e
:1070700007d8e10002003100680040001008e80075
:107080004f05be004f04be00000006001000fa00cd
:10709000889fbe008a9fbe000605be000404be0095
:1070a0003002be002003be00c4b79f00d5b79f00ca
:1070b000e6b79f00f7b79f000802520089825a0086
:1070c0000a035b008b835b0084bf9f0095bf9f001a
:1070d000a6bf9f00b7bf9f000498be000698be00e1
:1070e000110020004fb29700dfb297006fb39700f6
:1070f000ffb397000820e10009a8e1000ab0e10011
:107100000bb8e100010039008000eb00108810008e
:107110004f05be004f04be000080fa0000000600cc
:107120001400fa00889fbe008a9fbe008c9fbe009c
:107130003f0007000605be000404be000006eb0089
:10714000ccb79f00bcb79f00acb79f009cb79f0017
:107150008cb79f000d0420004fb39700bfb297007b
:10716000860343002fb29700e00f530004003d0058
:107170003d0007000f004000b0ff0700030037008c
:10718000390007000f004000c0ff0700cfb2970092
:1071900095bf9f00e08f5200090035002b000700cb
:1071a00014002000050020006033b80000007200c9
:1071b0008180720002017300838173001c0007004c
:1071c0000c06e8008d0f5600e3ff3a001fba970047
:1071d000e00f520005003d000802be000a03be0099
:1071e00000fe2f000f00400094ff07004faa9700f9
:1071f000e00f520008003a000fb497009fb49700c8
:107200002fb59700bfb59700d8b79f00e9b79f008b
:10721000fab79f008bbf9f000c0007004f06be000f
:107220004f05be004f04be000080fa0000000600bb
:10723000010007000000060090b79f00a1b79f0063
:10724000b2b79f00c3b79f0000000600010007000f
:10725000000006001fb09700afb097003fb1970045
:10726000cfb19700000006004f2bde0087037300ac
:10727000a7b79f004f23de0085824200850273007e
:1072800095b79f00ffaa97004f2bde000402420033
:107290000402730084b79f006faa97004f23de009b
:1072a0008582420085027300f5af9f00e9ff070069
:1072b0004f18de000402420000027200e4af9f009b
:1072c000e4ff0700000040008180480002014900ff
:1072d00083814900d8ff07000802be000a03be00f0
:1072e00000fe2f0000000600881f78001800200014
:1072f000881f78008aff07008f87e9004f04780015
:1073000000000600801feb0085ff07008f87e90063
:1073100000000600889fbe008a9fbe008c9fbe00b2
:107320000404be000605be00809fbe00829fbe0012
:107330002f000700040678000800be000a01be0006
:107340002b000700840678004f03be004f02be00ea
:107350008d4f76007fb0970013003300f0ff2f00b1
:107360008b8f6b0006003b000d0666000c00a7002b
:107370000a00370007f0a600100020000a003700be
:10738000880f5200898f5a008a0f5b008b8f5b0039
:10739000030039001000200001003e000000200022
:1073a00007f0a7000000ea004f06be004f05be0030
:1073b0004f04be0000000600e48240001078a300e5
:1073c00007003200640240001178a3003400be00c0
:1073d0001401be00040032000330a70000000600c4
:1073e0003500be001501be000330a00000000600fd
:1073f00005ff270005826100070032000428e10034
:1074000001003200240005000600070001003a00d8
:10741000440005000408050002000700f9ff3a00d7
:10742000140005006f826100810270008502710006
:107430008502720000000600800078005002be0045
:107440005003be004439de00f700b200f37f200095
:1074500003016100090032000218e10016003a0041
:10746000850172008301730083817300000820008e
:1074700015003a004000200013003700850172001b
:10748000830173008381730005003a0004a8be00e5
:1074900006a8be00100020000b0037000201e90022
:1074a0000402420085824a0006034b0087834b009a
:1074b0000748a300f9ff32000740a00004a8be005f
:1074c00006a8be00200020008000980092009800ce
:1074d0000000060081002000618055000b003d0087
:1074e0000b00200061fe2f000100e1001d003400b0
:1074f00082817100610164008904d1000884d30095
:107500000000e800faff3a0071002000610064000a
:1075100003007000020060000900320061044400b2
:10752000e0844c000988a500050032008b05e800c6
:107530006808e10002003a008904d1000884d30001
:10754000f20f20000258e10005003d00c75ddd009c
:10755000f907b20089807500080078000000060075
:0c7560000bf827008b00780000000500ed
:020000040000fa
:1030000010190400000000000c1a04000000000069
:103010000c1a0400000000000c1a0400000000005c
:103020000c1a0400000000000c1a0400000000004c
:103030000c1a0400000000000c1a0400000000003c
:103040000c1a040000000000dc190400000000005d
:103050000c1a0400000000000c1a0400000000001c
:103060000c1a0400000000000c1a0400000000000c
:103070000c1a0400000000000c1a040000000000fc
:103080000c1a0400000000000c1a040000000000ec
:103090000c1a0400000000000c1a040000000000dc
:1030a0000c1a0400000000000c1a040000000000cc
:1030b0000c1a0400000000000c1a040000000000bc
:1030c0000c1a0400000000000c1a040000000000ac
:1030d0000c1a0400000000000c1a0400000000009c
:1030e0000c1a0400000000000c1a0400000000008c
:1030f0000c1a0400000000000c1a0400000000007c
:103100000c1a0400000000000c1a0400000000006b
:103110000c1a0400000000000c1a0400000000005b
:103120000c1a0400000000000c1a0400000000004b
:103130000c1a0400000000000c1a0400000000003b
:103140000c1a0400000000000c1a0400000000002b
:103150000c1a0400000000000c1a0400000000001b
:103160000c1a0400000000000c1a0400000000000b
:103170000c1a0400000000000c1a040000000000fb
:103180000c1a0400000000000c1a040000000000eb
:103190000c1a0400000000000c1a040000000000db
:1031a0000c1a0400000000000c1a040000000000cb
:1031b0000c1a0400000000000c1a040000000000bb
:1031c0000c1a0400000000000c1a040000000000ab
:1031d0000c1a04000000000096900400000000009b
:1031e0000c1a0400000000000c1a0400000000008b
:1031f0000c1a0400000000000c1a0400000000007b
:103200000c1a0400000000000c1a0400000000006a
:103210000c1a0400000000000c1a0400000000005a
:020000040000fa
:1000080004180000081800000c1800001018000060
:10001800141800000c1900000c1900000c1900003d
:10002800181800001c1800002018000024180000f0
:100038000c190000281800002c18000030180000c7
:1000480034180000381800003c1800004018000060
:1000580044180000481800000c1900000c19000092
:100068004c180000501800005418000058180000e0
:100078005c1800000c1900006018000064180000eb
:100088000c190000681800006c18000070180000b7
:1000980074180000781800007c1800008018000010
:1000a80084180000881800000c1900000c190000c2
:1000b8000c1900008c18000090180000941800001b
:1000c800981800009c180000a0180000a418000050
:1000d800a8180000ac1800000c1900000c1900004a
:1000e8000c190000b0180000b41800000c1900002a
:1000f8000c190000b8180000bc1800000c1900000a
:100108000c1900000c1900000c1900000c19000053
:100118000c1900000c190000c01800000c19000090
:100128000c190000c4180000c8180000cc18000002
:100138000c1900000c1900000c1900000c19000023
:10014800d01800000c1900000c1900000c19000050
:100158000c190000d41800000c1900000c1900003c
:100168000c190000d8180000dc180000e018000086
:10017800e4180000e8180000ec180000f01800006f
:10018800f4180000f8180000fc180000001900001e
:1001980004190000081900000c1900000c190000cf
:1001a8000c1900000c1900000c1900000c190000b3
:1001b8000c1900000c1900000c1900000c190000a3
:1001c8000c1900000c1900000c1900000c19000093
:1001d8000c1900000c1900000c1900000c19000083
:1001e8000c1900000c1900000c1900000c19000073
:0801f8000c1900000c190000b5
:020000040000fa
:10756c0020410000656f00006e2000004c69000097
:10757c0074650000202d0000204f00007065000095
:10758c006e200000536f00007572000063650000f0
:10759c0020520000656300006f6e000066690000f9
:1075ac006775000072610000626c000065200000cd
:1075bc00436f00006d700000757400006572000070
:1075cc0020200000202000002020000020200000af
:1075dc00202000002020000020200000202000009f
:1075ec00202000002020000020200000202000008f
:1075fc00202000002020000020200000202000007f
:10760c00002000002020000020200000202000008e
:10761c00202000002020000020200000202000005e
:10762c00202000002020000020200000202000004e
:10763c00202000002020000020200000202000003e
:10764c00202000002020000020200000202000002e
:10765c00202000002020000020200000202000001e
:10766c00202000002020000020200000202000000e
:10767c0077770000772e00007370000065630000c0
:10768c00637900006c6100006e6400002e6e0000d7
:10769c0065740000202700003230000031350000f6
:1076ac00200000003d3d00003d3d00003d3d000040
:1076bc003d3d00003d3d00003d3d00003d3d0000d6
:1076cc003d3d00003d3d00003d3d00003d3d0000c6
:1076dc003d3d00003d3d00003d3d00003d3d0000b6
:1076ec003d0a000000410000656f00006e200000a4
:1076fc004c690000746500002053000065720000a6
:10770c007669000063650000204300006f6e000086
:10771c006669000067750000726100007469000002
:10772c006f6e00000a000000763000002e32000060
:10773c002062000079200000494c00006f760000a8
:10774c006553000070650000636300007920000041
:10775c0027300000372e0000303300002e3200009e
:10776c0030310000350a0000003d00003d3d0000b6
:10777c003d3d00003d3d00003d3d00003d3d000015
:10778c003d3d00003d3d00003d3d00003d3d000005
:10779c003d3d00003d3d00003d3d00003d3d0000f5
:1077ac003d3d00003d3d00000a0a00000044000081
:1077bc006574000065630000746900006e6700006a
:1077cc0020530000442d000043610000726400004f
:1077dc002e2e000000000000206e00006f740000d0
:1077ec00206600006f7500006e6400002028000009
:1077fc0025690000290a0000006600006f75000072
:10780c006e6400000a000000566f00006c750000ea
:10781c006d650000204c000061620000656c00008a
:10782c003a200000257300000a0000005365000098
:10783c00617200006368000020220000636f00008a
:10784c006e660000696700002e6900006e6900001a
:10785c00222e00002e200000006300006f6e00003e
:10786c0066690000672e0000696e00006900000068
:10787c006e6f000074200000666f0000756e0000d3
:10788c006420000028250000692900000a0000007f
:10789c005061000072730000696e000067200000e8
:1078ac00436f00006e66000069670000757200008f
:1078bc0061740000696f00006e20000046690000d2
:1078cc006c6500002e2e00000a00000072610000a2
:1078dc006d6300006c6500006172000000490000df
:1078ec006e69000074200000524100004d20000021
:1078fc002830000078250000303600006c5800005d
:10790c002c2000003078000025300000366c000080
:10791c00582c000020300000782500003032000088
:10792c00582c000020250000752900000a000000da
:10793c00726f00006d000000466f0000756e000055
:10794c0064200000225200004f4d00002220000055
:10795c004b650000793a000020460000696c00007d
:10796c00656e0000616d000065200000222500009e
:10797c00732200002c20000041640000647200009f
:10798c003a20000025300000385800002c20000060
:10799c004d6f0000643a000020250000690a0000c9
:1079ac0000620000697400007374000072650000ce
:1079bc00616d0000000000001201000000020000d8
:1079cc00000000000008000055f00000f0ff00006f
:1079dc00000000000102000000010000090200008c
:1079ec00590000000201000002c000003209000032
:1079fc000400000000020000ffff0000ff00000078
:107a0c000705000001020000400000000107000013
:107a1c00058100000240000000010000080b00007e
:107a2c000101000002020000010000000904000036
:107a3c00010000000302000002010000000500002c
:107a4c0024000000100100000424000002020000c9
:107a5c0005240000060100000105000024010000bf
:107a6c000001000007050000820300000800000070
:107a7c0002070000050300000240000000000000a7
:107a8c000705000083020000400000000000000019
:107a9c000403000009040000260300007700000026
:107aac0077000000770000002e000000730000003b
:107abc00700000006500000063000000630000001f
:107acc00790000006c000000610000006e000000f6
:107adc00640000002e0000006e0000006500000035
:107aec007400000014030000410000006500000059
:107afc006f0000006e000000200000004c00000031
:107b0c00690000007400000065000000f4bc000077
:107b1c004ebd000052bd000078bd0000476500005e
:107b2c0074200000616c00006c2000007365000084
:107b3c0063740000696f00006e7300002066000023
:107b4c00726f00006d2000002e6900006e6900004d
:107b5c0020660000696c0000652e00002e2e0000cf
:107b6c00006300006f6e000066690000672e000065
:107b7c00696e0000690000002569000020530000b8
:107b8c0065630000746900006f6e000073200000d4
:107b9c00666f0000756e0000640a00000043000070
:107bac006f6e00006669000067750000726100006e
:107bbc00746900006f6e000073000000222a000040
:107bcc002b2c00003a3b00003c3d00003e3f0000e7
:107bdc005b5d00007c7f0000002200002a2b00006f
:107bec002c2e00003a3b00003c3d00003e3f0000c4
:107bfc005b5d00007c7f0000000000000074000052
:107c0c0072750000650000007965000073000000cb
:107c1c0031000000536f00007572000063650000b6
:107c2c003a200000257300000a000000000000004c
:020000040000fa
:107c3c00225898004811de003258980043509800a2
:107c4c00c819de005350980000000600889fbe0043
:107c5c006983400070029000800a9000e00f52008f
:107c6c00e08f5a0030003200100990008203780037
:107c7c000002eb0000c2b300e3c2b300b7427800cd
:107c8c000402e80080cf520005003200e5cf52001c
:107c9c002b003200e90f520026003200055b780001
:107cac00eb0f5200f5ff3a00324a900084489800de
:107cbc00725c9000c844dd0008002000625a9000fd
:107ccc008482fb000400200004047400858474008a
:107cdc00425a90000482fb0005002000040474004a
:107cec0085847400525a90004822dd000500200063
:107cfc008418740085907400925a9000c82add0094
:107d0c00025a90000482fb0004827200a4009800c6
:107d1c00f2529000c82add00625290000482fb00ef
:107d2c0004827200b4009800004beb004f04be00bc
:107d3c0000000600035b7800055b7800d8ff370075
:107d4c0055ceb300e90f5200d4ff3a00f9ff3700cb
:107d5c00881f780080017800130278000080eb0007
:107d6c00e00f5200180032001441780006c2b30034
:107d7c000000eb00864f510013003600a7c3b30080
:107d8c000080eb00874f51000f0032000404e80024
:107d9c000802780084007800b442780086cf520044
:107dac000b00360087cf5200faff3a000200fb00ae
:107dbc000003b100e90f500002003e00810f540097
:107dcc00070032000080eb004f0478000000060032
:107ddc000000eb004f04780000000600fcff3700a9
:107dec00e00f5000f7ff3a008809e8004f047800d4
:107dfc0000000600f6ff370095002000e00f500051
:107e0c000a00320010027800e00f52000700320026
:107e1c000043eb00944f130004003200b4039000b5
:107e2c0010039000868f530002003200050078008a
:107e3c0000000600144090000d1c0700e1026000d9
:107e4c00faff32003000200000000600f9ff370076
:107e5c00889fbe008a9fbe008c1f780000047800ab
:107e6c00484290000000eb00e04f520004003a0042
:107e7c004f0678004f05be004f04be000000060000
:107e8c0058159000e8159000ec02200008064600fa
:107e9c0018409000140020000a01be008c007800ed
:107eac00451c07000003780010002000e00f530071
:107ebc00efff3a0046449800380a9000c80a900038
:107ecc0078099000881190000201550083815d00b3
:107edc0006007800840f5100858f5900e4ff3100b3
:107eec00b84490008984fb00e18f5400e0ff360019
:107efc000a0542008b854a001840900014002000af
:107f0c000a01be008c0078002b1c07008904e900d4
:107f1c00e18f54000c003600380a9000c80a90001b
:107f2c000a0542008b854a0018409000140020007e
:107f3c000a01be008c0078001f1c07008904e900b0
:107f4c00e18f5400f4ff3e000000eb004f06780078
:107f5c004f05be004f04be0000000600c8ff3700ee
:107f6c00889fbe008a9fbe00000478000205be00f8
:107f7c0058129000e81290008004eb00820f52001f
:107f8c00838f5a000500320008007800b0ff07000c
:107f9c0019002000e00f50000400320009007800a6
:107fac004f05be004f04be0000000600e102200099
:107fbc008880400018409000090278000a01be0039
:107fcc00b11b0700e00f5000f4ff3a005a14980060
:107fdc006b149800000078004f05be004f04be00e3
:107fec0000000600f1ff3700881f780000047800bd
:107ffc000042eb00444498000082eb008082eb00ce
:10800c00541498006514980008007800d4ff0700f9
:10801c0034c0b300e00f50000e003a00d422200010
:10802c0008024200144278000483fb004833dd0050
:10803c00c422200008024200144278000482fb0093
:10804c000403730024c0b30055a52a00850f530008
:10805c0003003200044078004f0478000000060052
:10806c0078e19000c811dd000200200068e2900069
:10807c008482fb00040020000401710085817100e2
:10808c0048e290000482fb0005002000040171000e
:10809c008581710058e290004822dd000500200027
:1080ac0004017100858171000382fb008402780059
:1080bc00020278000403be00621424004305200071
:1080cc0000427800820f5300838f5b00e1ff320087
:1080dc0038409100c800dd000000200028429100cb
:1080ec008482fb0004002000040070008580700076
:1080fc00084291000482fb0005002000040070007f
:10810c0085807000184291004822dd000500200097
:10811c0004007000858070000183fb0086037800ea
:10812c00000378000602be0002016a0083816a0027
:10813c000302710004f0a7000402ea000402ea0042
:10814c004f22de00044078004f0478000000060047
:10815c00c3ff37006f02b000889fbe008a9fbe002d
:10816c008c9fbe008e1f78000005780001007800ff
:10817c0002477800000deb00f5fe070000067800c2
:10818c00b9002000e00f56004f0035000c024600ed
:10819c0045bc200065047a00c9002000e00f5400a3
:1081ac0049003200080d78000040eb00984f100099
:1081bc004c003a00004ceb001c4498000c4078003a
:1081cc00af1a07000080fb0061026000390020003c
:1081dc003d003a00e04f570003003200640060009d
:1081ec00a900200038003a006011b800080078009f
:1081fc007dff07006055b800e14f50004a00320087
:10820c0019002000e34f50002f003200d90020004d
:10821c00e04f50002c003a00a87a9000c82add00ec
:10822c00187a90000482fb0084827200d90020002e
:10823c0004202000848f520023003a0058c690007e
:10824c004866dd0048c290000482fb0004067600fc
:10825c000d002000e00f5600e08f5e0012003a0087
:10826c0058d69000c866dd000c00200048d2900063
:10827c008482fb00040020000406760085867600cc
:10828c0028d290000482fb00050020000406760032
:10829c008586760038d290004822dd00050020004b
:1082ac0004067600858676003c0c98004d0c9800f0
:1082bc00687a9000344498008442e900d900200088
:1082cc00e1cf520050003600090078004f077800cb
:1082dc004f06be004f05be004f04be006f02b1003a
:1082ec000000060018409000e11a07000080fb0017
:1082fc00e1046000afff3a00e04f5700f2ff32009c
:10830c0064006000f0ff3200a00020004f077800ee
:10831c004f06be004f05be004f04be006f02b100f9
:10832c0000000600efff3700a9fc2f008f844400eb
:10833c0009007800e41b2000e21f2000e502200069
:10834c008482420085024400c54090006033b8002e
:10835c00e0cf500012003200354d9000c855dd00c2
:10836c000a002000254b90008683fb0006002000ad
:10837c000603750087837500054d90000a85fb0088
:10838c000b0020000a0373008b837300154d9000c3
:10839c004855dd000b0020000a0373008b8373002b
:1083ac0006a8be0070024200820f5200e3ff3a00a2
:1083bc00acfd2f000f0646005905be0020c0b300cf
:1083cc00e00f5500e08f5d0007003a008c8f5400e1
:1083dc008bff32005905be0020c0b300e00f5500e2
:1083ec00e08f5d00f9ff32000a01be000800780042
:1083fc00fdfe0700e04f500087ff32008c8f5400c9
:10840c00f4ff3a007eff3700387990002244980040
:10841c00e04f5100acff32008282fb000503e90003
:10842c0085026300a8ff3a0008c790008e00780010
:10843c00480fdd00f87a90008582fb000507770075
:10844c004e049800ef0267009fff3a0028c090008e
:10845c004800dd0098c290008582fb00050070008a
:10846c0001002000e00f5000e08f580012003a008d
:10847c0018d09000c800dd000000200008d3900048
:10848c008683fb00060020000600700087807000c9
:10849c0068cb90000683fb000700200006007000ec
:1084ac008780700078cb90004833dd0007002000f7
:1084bc000600700087807000587b90004833dd0008
:1084cc00c87a90008582fb0085017300d9002000da
:1084dc007dff32000482fb000500200004ebb90094
:1084ec000462b80085024300611bb800f6af9f0020
:1084fc0087b79f00c471de0003034300e0834b0089
:10850c00d6b79f00e7b79f000603420087834a0057
:10851c00f6b79f0087bf9f00860f5000878f5800cb
:10852c0069ff390006005000878058000281fb006b
:10853c000300200094b79f00a5b79f00e9eb07004c
:10854c000001be001fb29700afb29700e00f5100c0
:10855c00e08f59005cff320011c0b30057ff2000c0
:10856c00870f5100e08f5900e8003600eb0f4100f7
:10857c00e08f5900e400360062024100e0824900bd
:10858c00140c9800250c98005a0c98006b0c980051
:10859c007fab97008fb397000a0043008b804b0092
:1085ac00700c9800011498007fb097008fb897005a
:1085bc000003450081834d00361498004714980041
:1085cc00e00f570040ff3a0058d89000c800dd007b
:1085dc000000200048db90008683fb000600200092
:1085ec00060070008780700028db90000683fb007b
:1085fc0007002000060070008780700038db9000b8
:10860c004833dd00070020000603700087837000ec
:10861c0016149800271498004229dd00ce21de00a4
:10862c00830171004221dd0031c0b300f21fb000a4
:10863c000380b000471add004911de000201720010
:10864c00c919de00d9002000820f5600838f5e000e
:10865c001dff39000082eb008082eb00740498004f
:10866c00050c9800540498006504980004c8b300e5
:10867c0054449800e3cf50000e003200014c7800b7
:10868c00345e80000402e800345e880034049800f4
:10869c008004eb00090078004f0778004f06be00fd
:1086ac004f05be004f04be006f02b1000000060073
:1086bc000cff3700f8da9000c82add0068da900069
:1086cc000482fb0004827200e10f5200ebff3a00bf
:1086dc0061014500e0814d000800780091b79f00d2
:1086ec001ffe07009fb09700e00f5000e3ff3a0019
:1086fc0050449800d4222000080242001442780012
:10870c008482fb00c82add00c4222000080242003b
:10871c00144278000482fb008482720054a52a0063
:10872c00848f5200d5ff3a0018739000c833dd00d7
:10873c0006002000087290008482fb0004002000d8
:10874c000403730085837300686a90000482fb0045
:10875c00050020000403730085837300786a900081
:10876c004822dd000500200004037300858373009c
:10877c002425250015162400840f5300858f5b00db
:10878c00beff3a0054212000080242001443780036
:10879c00c833dd00060020004421200008024200fe
:1087ac00144278008482fb00040020000403730050
:1087bc0085837300242120000802420014427800b3
:1087cc000482fb0005002000040373008583730002
:1087dc003421200008024200144278000482fb007d
:1087ec004822dd000500200004037300858373001c
:1087fc002427270015142600840f5300858f5b0057
:10880c009eff3a0094212000080242001443780095
:10881c00c833dd000600200084212000080242003d
:10882c00144278008482fb000400200004037300cf
:10883c0085837300642120000802420014427800f2
:10884c000482fb0005002000040373008583730081
:10885c007421200008024200144278000482fb00bc
:10886c004822dd000500200004027300858273009d
:10887c0074049800050c9800d421200008024200d2
:10888c0014437800c833dd0006002000c42120000a
:10889c0008024200144278008482fb00040020008d
:1088ac000403730085837300a42120000802420096
