:020000040000fa
:080000000004040000000000f0
:020000040000fa
:100800000fa220000eff27000e018800000000004c
:1008100000012000200288000c000700e060210099
:10082000010020000f000700000020000000e00091
:10083000020032000000020000000000cc1502009f
:10084000000000000040da000000fe00000c200064
:100850000000e0000200320000202000900188002b
:1008600000000600a1028800800078000000eb0074
:100870001a003700e280400054a0b4009101ba0091
:10088000e280400054a0b4009102ba00e28040002f
:1008900054a0b4000002eb00472bde00f507b200c5
:1008a000a6018800602ce10008003a000049eb0036
:1008b0000201e800020039003420ec0002f0a00040
:1008c0008301e900f9ff3e00040037006128e100e0
:1008d000010032000082eb00040007001101ba00a1
:1008e0000200e000e3ff3a000000060004d0a3008d
:1008f000e20f49001c003900810278003549ba0036
:100900000201e800020039003420ec0002f0a000ef
:100910008301e9000f0032002549ba000201e80016
:10092000020039003420ec0002f0a0008301e9004d
:10093000080032000400e0000600320015c9ba00c9
:100940000201e800020039003420ec0002f0a000af
:100950008301e9008180e80054a0b4000300e000b6
:10096000e2ff3a00000006009102ba000559780043
:100970008301e900f7ff3200c82ade00055978003c
:100980008301e900f3ff32000400e000f1ff3200d0
:1009900011d9ba00eeff37000040da000000fe0077
:1009a0000002780002003700015a78000201e900d5
:0c09b000e00f5100fcff3a0000000600c0
:020000040000fa
:020000040002f8
:04aff8009e1b00009c
:020000040000fa
:020000040002f8
:04affc007f3e000094
:020000040000fa
:103000000004040000000000cc04040000000000e4
:10301000cc04040000000000cc0404000000000008
:10302000cc04040000000000cc04040000000000f8
:10303000cc04040000000000cc04040000000000e8
:10304000cc04040000000000cc04040000000000d8
:10305000cc04040000000000cc04040000000000c8
:10306000cc04040000000000cc04040000000000b8
:10307000cc04040000000000cc04040000000000a8
:10308000cc04040000000000cc0404000000000098
:10309000cc04040000000000cc0404000000000088
:1030a000cc04040000000000cc0404000000000078
:1030b000cc04040000000000cc0404000000000068
:1030c000cc04040000000000cc0404000000000058
:1030d000cc04040000000000cc0404000000000048
:1030e000cc04040000000000cc0404000000000038
:1030f000cc04040000000000cc0404000000000028
:10310000cc04040000000000cc0404000000000017
:10311000cc04040000000000cc0404000000000007
:10312000cc04040000000000cc04040000000000f7
:10313000cc04040000000000cc04040000000000e7
:10314000cc04040000000000cc04040000000000d7
:10315000cc04040000000000cc04040000000000c7
:10316000cc04040000000000cc04040000000000b7
:10317000cc04040000000000cc04040000000000a7
:10318000cc04040000000000cc0404000000000097
:10319000cc04040000000000cc0404000000000087
:1031a000cc04040000000000cc0404000000000077
:1031b000cc04040000000000cc0404000000000067
:1031c000cc04040000000000cc0404000000000057
:1031d000cc04040000000000cc0404000000000047
:1031e000cc04040000000000cc0404000000000037
:1031f000cc04040000000000cc0404000000000027
:10320000cc04040000000000cc0404000000000016
:10321000cc04040000000000cc0404000000000006
:020000040000fa
:1000080004180000081800000c1800001018000060
:10001800141800000c1900000c1900000c1900003d
:10002800181800001c1800002018000024180000f0
:100038000c190000281800002c18000030180000c7
:1000480034180000381800003c1800004018000060
:1000580044180000481800000c1900000c19000092
:100068004c180000501800005418000058180000e0
:100078005c1800000c1900006018000064180000eb
:100088000c190000681800006c18000070180000b7
:1000980074180000781800007c1800008018000010
:1000a80084180000881800000c1900000c190000c2
:1000b8000c1900008c18000090180000941800001b
:1000c800981800009c180000a0180000a418000050
:1000d800a8180000ac1800000c1900000c1900004a
:1000e8000c190000b0180000b41800000c1900002a
:1000f8000c190000b8180000bc1800000c1900000a
:100108000c1900000c1900000c1900000c19000053
:100118000c1900000c190000c01800000c19000090
:100128000c190000c4180000c8180000cc18000002
:100138000c1900000c1900000c1900000c19000023
:10014800d01800000c1900000c1900000c19000050
:100158000c190000d41800000c1900000c1900003c
:100168000c190000d8180000dc180000e018000086
:10017800e4180000e8180000ec180000f01800006f
:10018800f4180000f8180000fc180000001900001e
:1001980004190000081900000c1900000c190000cf
:1001a8000c1900000c1900000c1900000c190000b3
:1001b8000c1900000c1900000c1900000c190000a3
:1001c8000c1900000c1900000c1900000c19000093
:1001d8000c1900000c1900000c1900000c19000083
:1001e8000c1900000c1900000c1900000c19000073
:0801f8000c1900000c190000b5
:020000040000fa
:10020800cc040000cc040000cc040000cc040000a6
:10021800cc040000cc040000cc040000cc04000096
:10022800cc040000cc040000cc040000cc04000086
:10023800cc040000cc040000cc040000cc04000076
:10024800cc040000cc040000cc040000cc04000066
:10025800cc040000cc040000cc040000cc04000056
:10026800cc040000cc040000cc040000cc04000046
:10027800cc040000cc040000cc040000cc04000036
:10028800cc040000cc040000cc040000cc04000026
:10029800cc040000cc040000cc040000cc04000016
:1002a800cc040000cc040000cc040000cc04000006
:1002b800cc040000cc040000cc040000cc040000f6
:1002c800cc040000cc040000cc040000cc040000e6
:1002d800cc040000cc040000cc040000cc040000d6
:1002e800cc040000cc040000cc040000cc040000c6
:1002f800cc040000cc040000cc040000cc040000b6
:10030800cc040000cc040000cc040000cc040000a5
:10031800cc040000cc040000cc040000cc04000095
:10032800cc040000cc040000cc040000cc04000085
:10033800cc040000cc040000cc040000cc04000075
:10034800cc040000cc040000cc040000cc04000065
:10035800cc040000cc040000cc040000cc04000055
:10036800cc040000cc040000cc040000cc04000045
:10037800cc040000cc0400004e150000cc040000a2
:10038800cc040000cc040000cc040000cc04000025
:10039800cc040000cc040000cc040000cc04000015
:1003a800cc040000cc040000cc040000cc04000005
:1003b800cc040000cc040000cc040000cc040000f5
:1003c800cc040000cc040000cc040000cc040000e5
:1003d800cc040000cc040000cc040000cc040000d5
:1003e800cc040000cc040000cc040000cc040000c5
:0803f800cc040000cc0400005d
:020000040000fa
:1009bc0012010000100100000000000000080000ff
:1009cc00d80400003c0000000200000001020000fe
:1009dc0000010000090200002900000001010000d4
:1009ec0000c00000320900000400000000020000fa
:1009fc0003000000000000000921000011010000ac
:100a0c0000010000221d000000070000058100000d
:100a1c000340000000010000070500000103000076
:100a2c004000000001000000040300000904000065
:100a3c00340300004d00000069000000630000005a
:100a4c00720000006f0000006300000068000000ee
:100a5c00690000007000000020000000540000003d
:100a6c006500000063000000680000006e000000dc
:100a7c006f0000006c0000006f00000067000000b9
:100a8c007900000020000000490000006e0000000a
:100a9c00630000002e00000026030000550000003b
:100aac00530000004200000020000000480000003d
:100abc00490000004400000020000000420000003b
:100acc006f0000006f000000740000006c0000005c
:100adc006f00000061000000640000006500000071
:100aec007200000006000000ff09000001a10000d8
:100afc00011900000129000040150000002600002b
:100b0c00ff00000075080000954000008100000007
:100b1c00190100002940000091000000c0000000f5
:100b2c00f08400001a8500001e850000528500002c
:020000040000fa
:100b3c000080fb000182fb0000004000000242002c
:100b4c004322dd0005a020000502420014f0a100a4
:100b5c0065922000e0cf500001003200a5922000e9
:100b6c008432780014e0a1006402420014e0a0007a
:100b7c0000000600c548800084c0b300e78f520017
:100b8c000e003e00c448800045932000954278003a
:100b9c00e0cf520002003a0015c0b3000500370048
:100bac004593200095427800e1cf520003003a00b3
:100bbc0025c0b3000540780034e9b7000480fb0081
:100bcc001829b50055498000844a7800a594200066
:100bdc00b54988001609ab00070032000f0037003a
:100bec00a5488000b6498000355b7800b64988007e
:100bfc00a54888000442e900e04f5200f8ff3a0093
:100c0c0000000600a5488000b6498000355b7800de
:100c1c00b6498800a54888000442e900e04f52001c
:100c2c00f8ff3a0000000600259420009542780059
:100c3c0004c8b30084cf520033003a0000ccb30098
:100c4c0016e9b7005494200014427800e24f520089
:100c5c0008003200e34f520018003200e14f5200fe
:100c6c0028003a00e44d2800a44888002401200004
:100c7c00200037004494200014427800e04f5200ca
:100c8c001e003a0044942000144278000482fb00b9
:100c9c000402420065592800e5027a00a548880044
:100cac00a44880002440900018e9b700a4488000b4
:100cbc003440900019e9b70000000600449420006d
:100ccc0014427800e24f52000c003e004494200085
:100cdc00144278000482fb0004024200855928006b
:100cec00e5027a00a5488800a448800014427800e8
:100cfc000482fb00c4488800000006001669ef005f
:100d0c00000006001669ef00000006004a69ef00bb
:100d1c004b69ef0024942000144278007f0262009b
:100d2c00e10f52000b003200e20f52000b003200b8
:100d3c00e00f520020003a0016e9a800a491200010
:100d4c0014427800e04f52001b0032004a29a800e0
:100d5c001900370016e9a8001700370016e9a8009b
:100d6c006494200014427800e04f520006003500d5
:100d7c0064942000144278006f0262000402420066
:100d8c00659220000500370064942000144278001e
:100d9c006f02620004024200a5922000e5027a0074
:100dac000440280095026200848f520002003a0031
:100dbc0010c0b3004ae9b70016e9ab0005003200d9
:100dcc00a4942000a44888001609a80020c0b300f1
:100ddc0018e9b70000000600aa24ab00110032008d
:100dec00844980009442900006c8b30086cf52001c
:100dfc000b003a00564980009643900046c8b30059
:100e0c0086cf530006003a00c6c0b30016429800c5
:100e1c008449800014439000854273001542980069
:100e2c00aa24a9000408200054248800000006000d
:100e3c00881f780054498000140478004e44de006a
:100e4c00614464002a49aa00e4488000e80f52007b
:100e5c000b003a004494200014427800f407b200ce
:100e6c00b4248800b4248000e00f52000200320049
:100e7c00040120000100370044002000e4488800f1
:100e8c005493200014427800e14f520014003a00b1
:100e9c00a5942000544980001502980035ff0700e6
:100eac00459320009542780054498000e2cf5200cf
:100ebc0002003a0045c0b3000400370085c4b300fb
:100ecc00e04f54000100320085c0b3001542980079
:100edc00944290000574a00015429800160037004b
:100eec001492200014427800e04f520011003d0093
:100efc0045922000954278008582fb005492200098
:100f0c00144278004822dd0005027200080032000d
:100f1c0045922000954278008582fb005492200077
:100f2c00144278004822dd00050272000400010022
:100f3c0021e9a9003569ef004f0478000000060094
:100f4c001b69ef000001eb008000eb004007200064
:100f5c00190707008284a9000401200004248800da
:100f6c00000006008284a80004012000542488009c
:100f7c0010c0b3001be9b7000001eb008000eb00d0
:100f8c00500720000c0737000200fa00881f780079
:100f9c004594200095427800e1cf52000d003a00b4
:100fac0024942000144278007f42620009003a0029
:100fbc0016e9a8003694200016437800e34f53003e
:100fcc0002003a0005407800010037000440780028
:100fdc001ae9b7004494200014427800e04f520004
:100fec00a5003a0024942000144278007f4262004d
:100ffc00e24f5200a0003a006494200014427800a2
:10100c006f4262009c00320064942000144278000d
:10101c006f026200e10f520097003c00e54880002f
:10102c0004022000848f520093003a0016e9a800b5
:10103c006494200014427800e04f52000c003500fc
:10104c0064942000144278006f0262000402420093
:10105c0065922000e5027a00e5bf9f0064942000b1
:10106c00144278006f026200d59320000b00370009
:10107c0064942000144278006f0262000402420063
:10108c00a5922000e5027a00e5bf9f006494200041
:10109c00144278006f026200b593200065447a0018
:1010ac006142640004003a004ffa97000424a10046
:1010bc00c4ff9f0003003700cffa97000524a0005f
:1010cc00c5ff9f006494200014427800e04f52004a
:1010dc000800350064942000144278006f0262000e
:1010ec0004024200659220006fbb970086327a00a2
:1010fc000700370064942000144278006f026200ed
:10110c0004024200a59220006fb8970080327a004a
:10111c003494200014427800e34f52001a003a0035
:10112c006fba97008002eb00948f120010003d0004
:10113c006494200014427800e04f52000500350002
:10114c006594200095427800ef826200d6932000cf
:10115c00040037006594200095427800ef8262000d
:10116c00b693200066c27a000410a00004f37a0043
:10117c006fba97001443900045c8b30085427300c2
:10118c00154298003c0037004ffb97000624a20044
:10119c00c6ff9f00efb89700114290000000eb00d3
:1011ac00910f100007003d000474a1000464a0001e
:1011bc009440980022002000500020007e0607007a
:1011cc00020037000464a000944098004ffa970086
:1011dc000424a200c4ff9f006244640004003a008f
:1011ec006fba97008002eb00948f120018003d003c
:1011fc006494200014427800e04f52000500350042
:10120c006594200095427800ef826200d69320000e
:10121c00040037006594200095427800ef8262004c
:10122c00b693200066c27a000410a10004f37a0081
:10123c00efb8970011429000b443b200944098006c
:10124c0022002000500020005b060700030037003e
:10125c0094429000b543b20015429800649420006b
:10126c00144278006f02620004024200a54a20007a
:10127c00050242001414a1004f0478000080fa000b
:10128c0000000600889fbe0016e9a800ac24ef0001
:10129c0008a0200009022000090178008000eb0062
:1012ac0008007800bbfd07009424a8003b69ef0000
:1012bc003d69ef003c69ef003e69ef002e69ef00dd
:1012cc009424a90068024400544988008849880085
:1012dc009849880044c9bf001ee9b700e49120007a
:1012ec0014427800e04f520003003a000401200041
:1012fc00e44888000500370012002000e19120002e
:10130c00100020002c060700e94888004f04be009e
:10131c000000060024942000144278000446b20019
:10132c0036003a0034942000144278000482fb000a
:10133c0005002000eb0f5200e08f5a002f003e00fa
:10134c000460010013003700130037002b00370036
:10135c00110037002900370006003700090037005c
:10136c002200370009003700070037000b00370058
:10137c001500370016e9a80084002000e448880016
:10138c000000060028fe3700beff3700e491200065
:10139c00070037005dfe3700fbfe37006494200029
:1013ac00144278000482fb00e59220000502420002
:1013bc00a44888001609a80010c0b30018e9b700ab
:1013cc0016e9a8000000060016e9a80064942000a5
:1013dc00144278000482fb00e59220004694200021
:1013ec001643780086727a00000006000001eb00bc
:1013fc008000eb0020002000ef0507000000060035
:10140c009ec0a9008ea4ef008aa4ef00aa24ef00ce
:10141c00ac24ef002400200034258800a824ef0021
:10142c008644a900f40920008424880064248800e0
:10143c008804a80004a020004822de00c4248800f0
:10144c00002aef00022aef00042aef00062aef0020
:10145c00082aef000a2aef000c2aef000e2aef00f0
:10146c00102aef00122aef00142aef00162aef00c0
:10147c00182aef001a2aef001c2aef001e2aef0090
:10148c009424a8009624ef0094a4a9009424a90005
:10149c008500200009003700552488001669ef00ec
:1014ac002169ef0024922000144278002269ef0099
:1014bc0034922000144278002369ef0054248000f9
:1014cc0068026200f4ff3a0010c0b30040e9b700b4
:1014dc0041e9b7000440780012e9b70010e9b70001
:1014ec001be9b700344988003be9b7003de9b70078
:1014fc0064498800444988003ce9b7003ee9b700dc
:10150c0085a0200055498800d5002000552588006d
:10151c00259420001550880080c0b30000eab70065
:10152c0040c0b30001eab70001eaa800044078000b
:10153c001ee9b700e448880000000600889fbe0042
:10154c008a1f780000447800814478000985fb00ec
:10155c0068026500030032008040eb000840780010
:10156c0073fd0700640565000300320011c0b30071
:10157c00084078006efd07000884fb000804440056
:10158c00a44a200009727c004f0578004f04be006d
:10159c00000006000082fb00e0cf50000300320088
:1015ac0004024200a592200002003700040242000f
:1015bc006592200065027a00e00f5200150032009f
:1015cc0012029800034a7800944290000544b2003d
:1015dc0015429800944290000534a00015429800e2
:1015ec00944290000574a000154298000080fb0006
:1015fc00e0cf50000300320000004000a592200014
:10160c0002003700000040006592200005004000f9
:10161c001024a2000400780000000600e04f5000e7
:10162c0012003a0085c0b30094498000054a780046
:10163c00944980002594200015029800c5c0b30081
:10164c001542980095498000154290000474a00042
:10165c00944298005449800045c0b300154298004c
:10166c00944290000574a0000f0037000182fb002b
:10167c000080fb0000004000000242004322dd001d
:10168c0006a02000860342001740900045c8b30016
:10169c00054070009043980064024200060242002c
:1016ac001443900085427300154298000000060018
:1016bc0094a4ab00140032008082fb0085824200af
:1016cc00a492200085024200150278001403be008b
:1016dc00000420000603600007002000068abe00fc
:1016ec001403be000660a200068abe001524a200e8
:1016fc00944290000544b200154298009442900028
:10170c0000c06a0010429800000006000002eb00c6
:10171c00a424880064248800e448880000000600a3
:10172c00e4488000e00f520010003a00a424880026
:10173c006424880025002000352588004425880075
:10174c008644a900f40920008424880064248800bd
:10175c009ec0a800010037009404a8009404ab00bc
:10176c00fdff320014002000e44888000000060051
:10177c000494200014427800e04f52002d003a00ef
:10178c0010c0b30040e9b7001594200095427800d2
:10179c00e0cf520027003a0041e9b70054932000f3
:1017ac0014427800e24f520008003a00544980007d
:1017bc00054a780085c4b300154298009442900005
:1017cc000574a000154298000000060057932000f5
:1017dc0097437800e1cf530016003a00054078009b
:1017ec003ae9b70086c0b30084498000064a780005
:1017fc0084498000259420001502980040c0b30055
:10180c001042980080498000104290000474a0009f
:10181c0014409800074078003ae9b70094498000da
:10182c00064a7800944980001502980005c8b30058
:10183c00154298000000060084498000944278000c
:10184c0026922000164378000683fb003492200079
:10185c00144278004822dd00060272000583fb006a
:10186c00840f530004003600259220009542780026
:10187c0034922000144278002692200016437800ff
:10188c000683fb0034922000144278004822dd00cd
:10189c00060272000583fb0006025200269220000d
:1018ac00164378000440780022e9b7004822de0095
:1018bc0036922000164378000440780023e9b700e4
:1018cc000002eb0013003700f791200097437800db
:1018dc008783fb0006922000164378004833dd0016
:1018ec0007037300a7942000675b7a00f791200030
:1018fc0097437800064078001fe9b7004833de00b4
:10190c0007922000974378000640780020e9b70042
:10191c000402e80084cf5200ebff3e00249220002a
:10192c00144278000482fb00359220009542780026
:10193c00c82add00848272009449800010003200b5
:10194c0085c0b300054a780094498000a694200015
:10195c0016029800060024008749800017036300d4
:10196c0001003a0085c4b3001542980095498000e7
:10197c00154290000474a0009442980000000600e8
:10198c0085c0b300054a7800944980002594200056
:10199c001502980045c0b300154298009549800087
:1019ac00154290000474a0009442980045922000c7
:1019bc00954278008582fb005492200014427800f6
:1019cc004822dd000502720008003200459220001a
:1019dc00954278008582fb005492200014427800d6
:1019ec004822dd00050272000400010021e9a90073
:1019fc001491200014427800e04f520001003a008c
:101a0c005bff07000000060054932000144278008e
:101a1c00e24f520001003a0087ff37003569ef00b2
:101a2c00a493200014427800e04f52000d003a00bd
:101a3c0085c0b30094498000054a78009449800021
:101a4c002594200015029800c5c0b30015429800db
:101a5c0095498000154290000474a00094429800af
:101a6c00000006003a69ef00000006001269ef0062
:101a7c001069ef005493200014427800e24f52009a
:101a8c000d003a0085c0b30094498000054a7800e7
:101a9c0094498000a59420001502980085c4b300d9
:101aac001542980095498000154290000474a000de
:101abc0094429800000006008494200014427800a0
:101acc000482fb009594200095427800c82add0022
:101adc0084827200c4488000848f52000800310058
:101aec0085942000954278008582fb009494200018
:101afc00144278004822dd0005027200c4488800b8
:101b0c001cfc070054498000a59420001502980085
:101b1c0085c4b30015429800944290000574a0004f
:101b2c00154298000000060094a4a90016e9ab0029
:101b3c0021003a001492200014427800e04f520029
:101b4c000a003d0020c0b30035e9b7000491200025
:101b5c0014427800e04f520001003a00c3ff070026
:101b6c004169ef004069ef000000060085c0b3003a
:101b7c0094498000054a78009449800025942000ff
:101b8c0015029800c5c0b300154298009549800015
:101b9c00154290000474a0009442980054498000af
:101bac0045c0b30015429800944290000574a00003
:101bbc0015429800000006002594200095427800fc
:101bcc0004c8b30004c262000e00320010c0b3009f
:101bdc0035e9b7002491200014427800e04f520000
:101bec0001003a00a1ff07004169ef004069ef00d6
:101bfc001491200014427800e04f520017003a0074
:101c0c00dbfe370020c0b30035e9b70086c0b30057
:101c1c0095498000864a78009549800026942000da
:101c2c009602980046c0b3009642980096498000f0
:101c3c00964290000574a00015439800044078006b
:101c4c0041e9b70040e9b700149120001442780034
:101c5c00e04f520001003a00c5fe070000000600ec
:101c6c00881f78000040eb0034e9b70011e9b70099
:101c7c0012e9b70010e9b7003ae9b70035e9b70047
:101c8c0056498000964290000574a10015439800b7
:101c9c00a59220001524a2005749800017439000fc
:101cac000674a100964398001524a2009649800062
:101cbc00964290000574a1001543980016e9b700f0
:101ccc000004eb00c84888000840780021e9b70000
:101cdc00249220001442780022e9b70034922000ac
:101cec001442780023e9b7008afd07000801780048
:101cfc008200780030002000af0307008aff070045
:101d0c004f04780000000600d0c2b3003fe9b700d2
:101d1c008593200095427800b50fb2001f003a0061
:101d2c0087932000974378008783fb00c23bde003b
:101d3c00423bdd0000a020000002430084498800e3
:101d4c00944988003249aa0060007b0006c0230039
:101d5c000600600006402300860f50000e003a007b
:101d6c0014009000269420001040780000f37a00b4
:101d7c00140090000000e800100298008502e800b2
:101d8c00e88f5200f6ff3a00c23bdd0024a0200091
:101d9c0006b27b00b2ff37001bff37008493200094
:101dac0014427800b40fb200e80f520001003a0060
:101dbc001ffc070000000600889fbe00e44880005e
:101dcc00e10f520007003a0094c4ab0005003a0042
:101ddc008aa4ef008c04a8008c84a80024002000a6
:101dec00e44888008084ab00050032008284ab009c
:101dfc0003003200040120000424880050fc07007a
:101e0c008824ab0068003a008a04ab00080032005a
:101e1c008c04ab000600320079fd07009ec0a800c0
:101e2c0044002000e448880014002000542488005a
:101e3c008a84ab00050032008c84ab0003003200b6
:101e4c0048fc070004012000542488008a44ab009d
:101e5c00120032008c44ab0004003200120020004f
:101e6c008000eb00300720005303070044002000e3
:101e7c0054248800f493200014427800e04f520060
:101e8c00010032003f69ed00f49320001442780009
:101e9c00e04f520001003a0035fe07008ae4ab0027
:101eac00030032008ce4ab0001003200cafb0700d7
:101ebc008a24ab00090032008c24ab0007003200ee
:101ecc00120020008000eb00f0ff27003a0307000f
:101edc008ea4ef002400200054248800e4488000e5
:101eec00e30f5200300036008c64ab002e00320041
:101efc0048c0b300890020008a64ab002a0032007d
:101f0c00942480000440780038e9b70084932000c2
:101f1c00144278000482fb004422de000440780066
:101f2c0039e9b700592488008493200014427800c2
:101f3c006842620005003a00949320001442780035
:101f4c000482fb00d59320000400370094932000fa
:101f5c00144278000482fb00b593200065437a009c
:101f6c00614363000604a200e5437a000704a10064
:101f7c0006c3730086727a00949320001442780092
:101f8c00e04f520002003a005fff070004003700e8
:101f9c000001eb00819320002007200006030700be
:101fac000844e900d4ff3a008ec0a9004f04be00db
:101fbc0000000600889fbe000004eb00984a8800d1
:101fcc00a84a880040c5b300c0e8b700044025000b
:101fdc0014468800140020002446880019c0b30061
:101fec00094078000ee9b70008407800c6e8b70051
:101ffc000aa9ef000ca9ef0008e9b700d1c1b300a2
:10200c00094078004dfd070003c4b300028820008e
:10201c0088407800094078005efd0700904a8800ef
:10202c004f04be0000000600768c2000164378009a
:10203c000683fb00070020004a3add00c632de00b2
:10204c00850272004a32dd0026042400063b88001b
:10205c000583fb00a60288000083eb00060abb0088
:10206c001000fc0054052000343b8800a40a20001a
:10207c00343b880061e7a80000000000000000006d
:10208c0004002800063b800086026200e08f5200ac
:10209c00fcff3a000000060034002400043b8800da
:1020ac00848c200005002800180037000683fb00f4
:1020bc000700200050488000614880000603500053
:1020cc0087835800a7028800140bbb009403900070
:1020dc00078bbb001000fc0056052000363b880027
:1020ec00a60a2000363b880061e7a800000000002b
:1020fc0000000000073b800007836200e00f5300e4
:10210c00fcff3a0008e9ed006402420086902000d2
:10211c0016437800e04f5300e4ff3a0061c7a90072
:10212c00000006000400fa00e0bf9f00f1bf9f0012
:10213c00a50280007fba9700a40288006fba9700ae
:10214c001483ba00860078001400ba00a502880037
:10215c000080fa0000000600889fbe008a1f7800ed
:10216c00648c200014427800e04f520022003a00a8
:10217c00a44a8000e00f5200030032000000eb0084
:10218c00940f100045013500944a8000e00f520076
:10219c00030032008000eb00948f10003f013500eb
:1021ac00f4872000f57f2000060420000403430080
:1021bc00d46a7800860f5200fdff3a0003c4b300c6
:1021cc00028820008040eb0010c0b300f1fc070037
:1021dc00904a880010c0b300c6e8b700f483200012
:1021ec000504200084824200006aeb00850f520037
:1021fc00fdff3a00290137000480200014427800ca
:10220c000482fb000500200062025200e0825a00aa
:10221c00e60f5200e08f5a0020013e0004600100de
:10222c0006003700410037005500370062003700c8
:10223c00b5003700b80037001201370024c0b300d6
:10224c000440780040e8b70080c3b30041e8b70011
:10225c000440780042e8b70016c0b300064078008e
:10226c0043e8b7004468ef0080c1b30045e8b7000d
:10227c004668ef004768ef0004802e00f5ff2f0042
:10228c0010468000214680000002420081824a00f4
:10229c000440780048e8b700c823de000740780007
:1022ac0049e8b700054078004ae8b700482ade0044
:1022bc00044078004be8b7004ce8ef00e4902000b5
:1022cc0014427800e04f520011003a0030c0b300c5
:1022dc004ce8b70080cfb3004de8b70070c5b30031
:1022ec004ee8b700064078004fe8b700044078008d
:1022fc0050e8b70080c0b30051e8b7000440780044
:10230c0052e8b70053e8b70054e8b70055e8ef00bf
:10231c00a44a8000e00f5200d20032008000eb0093
:10232c00948f1000dd003500ce00370014802000a3
:10233c0014427800e04f520007003a0050c5b30039
:10234c00c0e8b700817f25001146880011002000ed
:10235c00214688000700370040c5b300c0e8b7002d
:10236c0001402500114688001100200021468800fc
:10237c0014c0b300044078000ee9b700bf0037006a
:10238c0060c0b300c7e8b7000300370026ff0700a2
:10239c0089fe0700c768ec00758c20009542780018
:1023ac00048c20001442780084cf5200f7ff3600d2
:1023bc0061c7a900b100370054488000654880000f
:1023cc00e10f4200e08f4a0010003a001680200016
:1023dc00164378000683fb00278020009743780083
:1023ec00c83bdd000682730036802000164378005f
:1023fc000683fb004780200097437800c83bdd0034
:10240c008682730054488800654888001680200036
:10241c00164378000683fb00278020009743780042
:10242c00c83bdd000682730036802000164378001e
:10243c000683fb004780200097437800c83bdd00f3
:10244c00868273005648800067488000840f5300d2
:10245c00858f5b0089003a000044eb008a8c2000d9
:10246c0089032000210037008590200095427800d8
:10247c000583fb00860343000881fb0004825400a3
:10248c0026002000110009000602d80000024100bd
:10249c0064024200040242000680200066407a007a
:1024ac000080fb0004024300144290004822dd002f
:1024bc000002720004b57b000542e800044078007d
:1024cc0008e9b70056488000674880006103430064
:1024dc00e0834b005648880067488800fc4f520048
:1024ec0001003a00ecfe07000844e800548020008c
:1024fc00144278000482fb008402d100854f540002
:10250c00d9ff39005d003700e3fe07000aa9ef0090
:10251c000ca9ef0059003700a44a8000e00f5200cc
:10252c00030032008003eb00948f13005b00350036
:10253c0070c0b30040e8b700168020001643780046
:10254c000683fb002780200097437800c83bdd0002
:10255c000682730036802000164378000683fb0049
:10256c004780200097437800c83bdd0086827300cb
:10257c000440780041e8b7004823de0006407800ac
:10258c0042e8b7000540780043e8b700482ade006f
:10259c000440780044e8b70005c8bf0045e8b70020
:1025ac000044eb0009842000280037000880fb0061
:1025bc000100200016802000164378000683fb00e3
:1025cc002780200097437800c83bdd00068273000b
:1025dc0036802000164378000683fb0047802000dd
:1025ec0097437800c83bdd008682730000004200f0
:1025fc0081804a00cbfe07008883fb0056802000b8
:10260c00164378000683fb000603d10006815300b5
:10261c000202b0000201410002814400004978002e
:10262c00c801de00134198008182fb000683530031
:10263c001602b0000603430006834400054b7800e5
:10264c00482ade001443980008c4e8005480200097
:10265c00144278000482fb000402d100844f540021
:10266c00d2ff390003c4b3000284200011c0b300b0
:10267c0001407800c7fb0700a04a8800c668ef003d
:10268c00060037009424ef000082eb0000000000ed
:10269c000402e900fdff3a000000fe004f0578003f
:1026ac004f04be0000000600010020006100500035
:1026bc00e0805800e30f5000e08f58000c003e0003
:1026cc0000600100030037000400370005003700ec
:1026dc0006003700f522a80000000600dce2a80086
:1026ec0000000600ec02a80000000600ec22a80086
:1026fc00000006000100200061005000e08058003e
:10270c00e30f5000e08f58000c003e000060010009
:10271c0003003700040037000500370006003700bf
:10272c00f522a90000000600dce2a900000006006a
:10273c00ec02a90000000600ec22a9000000060033
:10274c000100200061005000e0805800e30f5000b1
:10275c00e08f580029003e000060010003003700a4
:10276c000c003700150037001c003700a51780003f
:10277c00c92ade008582ea00e1826200c92add00f6
:10278c00a41780000490a10005027200a417880011
:10279c0000000600e5168000c72ade008582ea00ec
:1027ac00e1826200c72add00e41680000470a100fb
:1027bc0005027200e4168800000006006517800010
:1027cc008582ea00e1826200641780000400a100a7
:1027dc00050272006417880000000600ec02d500a8
:1027ec000082ea00610262008402420064178000e9
:1027fc000410a10005027200641788000000060096
:10280c006102b80061025200e0825a000040eb0005
:10281c00e30f5200e08f5a0010003e0004600100ec
:10282c0003003700050037000700370009003700a8
:10283c00a01780004900de0004003700e01680007d
:10284c004700de0001003700601780006140600027
:10285c0000000600ec02d50061406000000006009c
:10286c000100200061005000e0805800e30f500090
:10287c00e08f58000c003e000060010003003700a0
:10288c00040037000500370006003700f122a900cc
:10289c0000000600d8e2a90000000600e802a9002a
:1028ac0000000600e822a900000006002494200085
:1028bc00144278007f426200e14f520050003a000f
:1028cc006494200014427800e04f52004c003a000f
:1028dc003494200014427800e64f520017003a005e
:1028ec00549420001442780015c2b300854f520056
:1028fc00040032008542e800854f52000f003a0078
:10290c0008003700e491200014427800e14f520097
:10291c000a003a0024502800a448880094002000a3
:10292c000300370084572800a4488800d4012000f5
:10293c00c448880000ccb30016e9b70025942000e9
:10294c00954278000546b20004c2b30084cf520011
:10295c002b003a0034942000144278000482fb00cf
:10296c000500200062025200e0825a00e90f52007a
:10297c00e08f5a0022003e0004600100090037007d
:10298c00130037001e0037001d0037001c003700f5
:10299c001b0037001a0037001900370007003700fa
:1029ac0013003700a4952000a448880014002000d0
:1029bc00c448880014ccb3000a00370000c8b30028
:1029cc0016e9b70045c9bf005ae9b7000000060078
:1029dc00b4952000a448880014002000c448880046
:1029ec0014c8b3000440780016e9b70000000600d4
:1029fc0000c8b30016e9b70044c9bf005be9b700d3
:102a0c0000000600e224ef00e424ef00e624ef00cf
:102a1c00ea24ef00ec24ef00e00f50001b003a001a
:102a2c0083e0a80010002000970007001000200091
:102a3c008c000700e04f500006003a00043a80007a
:102a4c003408b2000300320083e0a900001804002f
:102a5c00000000001000200081ff07002000200073
:102a6c007fff0700300020007dff070040002000a2
:102a7c007bff0700200020000bff07003000200028
:102a8c0009ff07004000200007ff070000000600b8
:102a9c003600f800809fbe00829fbe00849fbe005f
:102aac00869fbe003200f8000020200090018800b4
:102abc00c1fc07003200f9004f03be004f02be00fc
:102acc004f01be004f00be003600f900004006006a
:102adc0044248000620262000800320010002000d2
:102aec0004ff070020002000effe0700300020004c
:102afc00edfe070040002000ebfe3700e6488000aa
:102b0c00c04a800005022000850f53000f003a00d8
:102b1c00e10f500003003200850c2000850f50009f
:102b2c0002003a00100020000a00370025032000a4
:102b3c00850f50000c003200a50f2000850f5000af
:102b4c0009003200853e20000b003700e10f5000d9
:102b5c0002003a00d4fe07000a00370025032000cb
:102b6c00850f500003003a0010002000e1fe070022
:102b7c0004003700653b2000850f50000100360033
:102b8c00c44a88005829ec00000006000000eb0045
:102b9c009cff07001afa0700e1fa0700e4488000de
:102bac00ff0f5200fdff36008824ab00fbff3a00fc
:102bbc0069fd0700f9ff370034072000840f50002f
:102bcc000c00320005003c00e10f50000b003200fd
:102bdc00e30f50000c003a000a00370044072000b5
:102bec00840f5000030032000402e800840f5000f0
:102bfc0005003a00b6ff070003003700edfc0700a4
:102c0c000100370029ff070010c0b30000000600c8
:020000040000fa
:102c1c0052090000060000008200000000000000c5
:102c2c0000010000000800001001000080000000fe
:102c3c00580900000200000080000000100900008c
:102c4c004200000080000000000a0000200000008c
:102c5c00800000005a090000020000008000000003
:042c6c000000000064
:020000040000fa
:102c7000e10f500005003a00101780000002b2007a
:102c80000000e9004f00de00000006000040eb00fd
:102c900000000600e10f500001003a00e0a2a80089
:042ca000000006002a
:00000001FF
